:100000000C9493390C94C4390C94C4390C94C439AD
:100010000C94C4390C94C4390C94C4390C94C4396C
:100020000C94C4390C94C4390C94C4390C94C4395C
:100030000C94C4390C94C4390C94C4390C94C4394C
:100040000C94C4390C94B6A00C94C4390C94C439E3
:100050000C94C4390C94C4390D94D6030D94DF2E3E
:100060000C94C4390C940B5D0C94015D0C94C43950
:100070000C94C4390C94C4390C94C4390C94C4390C
:100080000C94C4390C94C4390C94C4390C94C439FC
:100090000C94C4390C94C4390C94C4390C94C439EC
:1000A0000C94C4390C94C4390C94C4390C94C439DC
:1000B0000C94C4390C94C4390C94C4390C94C439CC
:1000C0000C94C4390C94C4390C94C4390C94C439BC
:1000D0000C94C4390C94C4390C94C4390C94C439AC
:1000E0000C94C439F95335547F5462551E55F95553
:1000F00051576F57785710E77FE5B8E54CE7B8E5FB
:10010000B8E5B8E5B8E5B8E5B8E5B8E5B8E5B8E507
:10011000B8E5B8E5B8E5B8E5B8E5B8E5B8E5B8E5F7
:10012000B8E5B8E5B8E5B8E5B8E5B8E5B8E5B8E5E7
:10013000B8E546E7B8E5B8E5B8E5B8E5B8E5B8E547
:10014000B8E5B8E51FE7B8E5B8E5B8E5B8E5B8E55E
:10015000B8E5B8E5B8E5B8E5B8E563E7B5E5E201C7
:100160004C012A01F6013602140152026C01000210
:10017000AC0112015802320180020A02CC01400196
:100180001002DC01BA01040232017401EC018A019F
:10019000CE014E02F2014801D6013C011402900248
:1001A000B201DA01B601500202021E023C012E0128
:1001B0004002F401084AD73B3BCE016E84BCBFFD30
:1001C000C12F3D6C74319ABD56833DDA3D00C77F27
:1001D00011BED9E4BB4C3E916BAAAABE00000080C0
:1001E0003F05A84CCDB2D44EB93836A9020C50B94F
:1001F000918688083CA6AAAA2ABE000000803F007B
:100200000C94BCF40C943FF10D9453120C94045EC6
:100210000C94AC5D0D94F2300C94615F0C947F549F
:100220000D949B0D0D94D22C0D9444260C94185EC5
:100230000C940FE50D9438180D943E180C94BFF2F1
:100240000C9478570D94020C0C941FE70C9438F61C
:100250000C94AC5E0D94C3240D94720B0D94722E0D
:100260000C94B25E0D94162D0C94095F0D940B182E
:100270000C9427E00C9448B50D94902E0D940D1815
:100280000D94F12C0C943CE00D94FF110C9404B1EE
:100290000D940D2E0C94EBBC0D94F3240C9494D778
:1002A0000D94CE0F0C9428F20C947DF80C94F2F47B
:1002B0000C94B2F40C94A05E0C94B5E50C949FFFE2
:1002C0000C94525D0C94825E0C94C7F40C94885E7E
:1002D0000C94FF5E0C948CF80D94DC2C0C9469F15A
:1002E0000C94F9DE0C949A5E0D94092D0D94FC1774
:1002F0000C9482600C94A5FF0C9446E70C9499E151
:100300000C9431E00D9406110C9405F70D940D102A
:100310000C94F8E40D94112D0D945B120C946F570E
:100320000D94DD170C9405FE0C941BDF0C9436EC39
:100330000D944A160C9490F20C9436C80C94D3F495
:100340000C94ECBC0D941D140C94A2FF0D94BA0BEC
:100350000D94BF0C0C947F650D94CE2C0D94510A16
:100360000C94D45D0D94312E0C947C5E0D94452E2E
:100370000C94EFBC0D94FF2C0C94F9550C94D4E420
:100380000C94F9530C94E4600C9495F20C948E5EEA
:100390000C94C05D0C948DB10D94ED2C0D94F92D41
:1003A0000C94B9F20D9475010C9436E00D94172E4F
:1003B0000D94F80C0D943B2E0D94FB2C0C9462556F
:1003C0000C94535E0D940D260C94EF5E0D94890BE6
:1003D0000C9497F00C94FAC40D940D2D0C94945E2B
:1003E0000C94CBF20D94032E0D94862E0D94C924FB
:1003F0000C9435540D9424350C94435F0C9402E511
:100400000D94DF2C0D945E2E0D94032D0C94FEDEC6
:100410000C942CE00D94E72C0C948AF80C94515712
:100420000D94F52C0C94D6DE0D94212E0C945A5F6D
:100430000C94765E0C9410E70C947FF80D94682E63
:100440000C9463E70D947A0D0C94E85D0D947A0B8F
:100450000C9403DF0C9417DF0C9401F50C94F5E475
:100460000C947FE50C949FF20D94D90C0D943726D3
:100470000C9488ED0C941FB50C94B3630C9486F81F
:100480000D947C2E0C94695D0C94C1F40C9407EED1
:100490000C94805D0C9455EC0C941E550D94FE2D1F
:1004A0000D944F2E0D9428260D94850B0C94E2E4A8
:1004B0000D94D82C0D943A180C944CE70C94365E9D
:1004C0000C94705E0D94C7150C94FBF40C9407F318
:1004D0000C94255E0C945EEB0C94C5F20C94FAEC33
:1004E0000C9406DF0C94A65E0C94325E0C940AE920
:1004F0000C94EDFB0C94825D0C941FDF0C94B8E51A
:100500000D94E32C0C9424F60C94F65D0C944C653D
:100510000C9474E30D94A00B0D94240A0C94985D34
:100520000D94292E0C94FBE40C947E600C949AF2AA
:100530000D94530B0C9418B10D943C180C94265F39
:100540000C9488F80C94B7F44E414E494E495459D6
:10055000494E46CDCCCC3D0AD7233C17B7D138778E
:10056000CC2B329595E6241FB14F0A0000204100A4
:1005700000C84200401C4620BCBE4CCA1B0E5AAEEE
:10058000C59D7400407A10F35A00A0724E180900FD
:1005900010A5D4E80000E87648170000E40B5402E8
:1005A0000000CA9A3B000000E1F505000080969823
:1005B00000000040420F000000A086010000001073
:1005C0002700000000E803000000006400000000B5
:1005D000000A00000000000100000000002C76D896
:1005E00088DC674F0823DFC1DFAE59E1B1B796E57C
:1005F000E3E453C63AE651997696E8E6C28426EBE0
:10060000898C9B62ED407C6FFCEFBC9C9F40F2BAF2
:10061000A56FA5F490055A2AF75C936B6CF9676D8A
:10062000C11BFCE0E40D47FEF520E6B500D0ED90DF
:100630002E0300943577050080841E080000204EAC
:100640000A000000C80C333333330F986E12831145
:1006500041EF8D2114893BE65516CFFEE6DB18D11C
:10066000844B381BF77C1D901DA4BBE424203284EE
:10067000725E228100C9F124ECA1E53D27434F4D74
:100680004D554E49434154494F4E004452595255DD
:100690004E004552524F525300494E464F0045437B
:1006A000484F0047322F47332062616420706172E7
:1006B000616D65746572730A00E4BC91E79CA0E407
:1006C000B8AD202E2E2E004D65736820706F696EB8
:1006D000742063616E6E6F74206265207265736F43
:1006E0006C7665640A00E782B9E587BBE7BBA7E7DC
:1006F000BBAD202E2E2E00E697A0E7A7BBE58AA86B
:1007000000456E642066696C65206C6973740A002C
:10071000426567696E2066696C65206C6973740A4E
:1007200000286E6F2066696C6529004375727265DA
:100730006E742066696C653A2000534420707269BB
:100740006E74696E67206279746520004E6F742044
:100750005344207072696E74696E670A005377693A
:10076000746368696E6720746F2042696E61727984
:100770002050726F746F636F6C0A002569730025D7
:10078000696D20256973002569682025696D20251C
:10079000697300256964202569682025696D202515
:1007A00069730025697920256964202569682025F9
:1007B000696D20256973005072696E742074696DCB
:1007C000653A20006F6B006F6666009E0699069280
:1007D000068B067D0644454255473A004D3131327D
:1007E0002053687574646F776E004D313133205338
:1007F000004D756C626F74204F46462E0043484191
:100800004D4245525F54454D504552415455524515
:10081000004D4F54494F4E5F4D4F4445530054488F
:1008200045524D414C5F50524F54454354494F4EF1
:10083000004155544F5245504F52545F53445F53FB
:1008400054415455530050524F4D50545F535550DE
:10085000504F525400454D455247454E43595F5005
:10086000415253455200434153455F4C4947485418
:100870005F4252494748544E45535300544F4747EF
:100880004C455F4C494748545300534F46545741D9
:1008900052455F504F574552004255494C445F50B6
:1008A000455243454E54004C4556454C494E475FD2
:1008B00044415441005A5F50524F42450041555403
:1008C0004F4C4556454C005052494E545F4A4F429A
:1008D0000050524F4752455353004155544F5245D3
:1008E000504F52545F54454D5000564F4C554D4556
:1008F0005452494300454550524F4D0042494E41E4
:1009000052595F46494C455F5452414E53464552F9
:100910000053455249414C5F584F4E5F584F464631
:10092000004649524D574152455F4E414D453A4D63
:1009300061726C696E206275676669782D322E303F
:100940002E7820284769744875622920534F5552E4
:1009500043455F434F44455F55524C3A6874747049
:10096000733A2F2F6769746875622E636F6D2F4D10
:1009700061726C696E4669726D776172652F4D6147
:10098000726C696E2050524F544F434F4C5F564526
:100990005253494F4E3A312E30204D414348494E33
:1009A000455F545950453A4D756C626F74204558F7
:1009B0005452554445525F434F554E543A31205599
:1009C0005549443A63656465326132662D3431615C
:1009D000322D343734382D396231322D6335356359
:1009E00036326633363766660A002F2F20004D31C7
:1009F000343520533C696E6465783E206F757420F1
:100A00006F662072616E67652028302D31290A00DB
:100A1000205400205200416363656C657261746903
:100A20006F6E3A2050003F4A206F7574206F662029
:100A300072616E67652028302E303120746F20304F
:100A40002E33290A0020466C6F773A200050726FCF
:100A50007465637465642050696E0A004D424C20D1
:100A600041646A757374205A00496E76616C6964DA
:100A70002065787472756465720A0020643A0020FB
:100A8000693A0020703A0064697300656E0043297A
:100A90000A0061626C656420286D696E2074656D62
:100AA000702000436F6C64206578747275646573A0
:100AB0002061726520004D65736820706F696E74E7
:100AC0002063616E6E6F74206265207265736F6C57
:100AD0007665640A004D34323120696E636F72723C
:100AE00065637420706172616D65746572207573E1
:100AF0006167650A00E5818FE7A7BBE5B7B2E590BE
:100B0000AFE794A8004572723A20546F6F20666177
:100B1000722100546F6F206661722066726F6D20C3
:100B20007265666572656E636520706F696E740AC2
:100B300000454550524F4D204F4B0A0043617365AD
:100B4000206C696768743A200043617365206C69A2
:100B50006768743A206F66660A00496E76616C6950
:100B6000642065787472756465720A004572726FEC
:100B7000722077726974696E6720746F20454550E2
:100B8000524F4D210A00363726033C3D380E2E3099
:100B90003E121A1C1824221E0F130209440AFF4396
:100BA00009070001627573793A2070617573656495
:100BB00020666F7220696E7075740A0062757379B1
:100BC0003A2070617573656420666F722075736575
:100BD000720A00627573793A2070726F636573737D
:100BE000696E670A005046543A696F6572726F7297
:100BF0000A005046543A737563636573730A005074
:100C000054463A696E76616C69640A005046543AFB
:100C1000737563636573730A005046543A696F6570
:100C200072726F720A005046543A696E76616C694E
:100C3000640A005046543A696E76616C69640A0031
:100C40005046543A6661696C0A005046543A7375CE
:100C500063636573730A005046543A627573790A88
:100C6000002C003A636F6D70726573696F6E3A683D
:100C7000656174736872696E6B2C002E002E0050D3
:100C800046543A76657273696F6E3A00556E7375A5
:100C900070706F727465642042696E617279205061
:100CA000726F746F636F6C0A00556E6B6E6F776E48
:100CB0002042696E61727950726F746F636F6C431A
:100CC0006F6E74726F6C205061636B65740A00669E
:100CD00065004461746173747265616D2074696D3F
:100CE000656F75740A00727300526573656E6420D7
:100CF0007265717565737420006F6B0029207061D7
:100D0000796C6F616420636F72727570740A005041
:100D100061636B657428004461746173747265610A
:100D20006D207061636B657420646174612062750D
:100D300066666572206F76657272756E0A003F296D
:100D400020636F72727570740A005061636B657412
:100D5000206865616465722800446174617374720F
:100D600065616D207061636B6574206F7574206FB1
:100D700066206F726465720A006F6B002E002E0091
:100D80002C002C00737300E5B7B2E5819CE6ADA2A0
:100D9000005072696E7465722073746F7070656450
:100DA0002064756520746F206572726F72732E20D7
:100DB00046697820746865206572726F7220616E72
:100DC0006420757365204D39393920746F20726540
:100DD00073746172742E202854656D70657261742D
:100DE0007572652069732072657365742E20536572
:100DF0007420697420616674657220726573746111
:100E00007274696E67290A004E6F20436865636BD0
:100E100073756D2077697468206C696E65206E75D6
:100E20006D6265722C204C617374204C696E653A5A
:100E300020004E6F20436865636B73756D20776982
:100E40007468206C696E65206E756D6265722C2009
:100E50004C617374204C696E653A20006368656369
:100E60006B73756D206D69736D617463682C204CB4
:100E7000617374204C696E653A20004C696E652080
:100E80004E756D626572206973206E6F74204C61BF
:100E90007374204C696E65204E756D6265722B31DE
:100EA0002C204C617374204C696E653A20004D31E2
:100EB0003130004D313137004D3331005344207211
:100EC000656164206572726F720A00446F6E6520FE
:100ED0007072696E74696E672066696C650A004B92
:100EE000494C4C20636175736564206279204B49DD
:100EF0004C4C20627574746F6E2F70696E0A004BD3
:100F0000494C4C2063617573656420627920746F6D
:100F10006F206D75636820696E6163746976652002
:100F200074696D65202D2063757272656E7420631F
:100F30006F6D6D616E643A2000E4B89DE69699E7A6
:100F40009BB4E5BE8400E6B58BE5AEB9E7A7AF6D0F
:100F50006DC2B3004D333033205531204525692013
:100F600053256900504944204175746F74756E654E
:100F7000202A005049442D44202A005049442D493C
:100F8000202A005049442D50202A00200820E59BAB
:100F9000A0E695B000200820E69C80E5A4A70020EC
:100FA0000820E69C80E5B08F00E585B300E5BC80B5
:100FB00000E887AAE58AA8E68EA7E6B8A900205A25
:100FC0003A0020593A0020436F756E7420583A0059
:100FD00020453A00205A3A0020593A00583A002059
:100FE000746F6F206C6F6E672065787472757369AB
:100FF0006F6E2070726576656E7465640A0020639A
:101000006F6C6420657874727573696F6E2070728E
:101010006576656E7465640A00E5BD92E58E9FE4B1
:10102000BD8DE5A4B1E8B4A50000000000000000FB
:10103000000000000000004842000048420000801C
:10104000405761726E696E673A20486F6D696E67CE
:101050002042756D702044697669736F72203C2060
:10106000310A000202040000A0400000A04000007D
:10107000004000002043000048430000FA42FFFF08
:10108000FF2E0A006F70656E206661696C65642CC6
:101090002046696C653A200020746F6F206C6F6E7B
:1010A0006720657874727573696F6E2070726576EB
:1010B000656E7465640A0020636F6C6420657874E3
:1010C000727573696F6E2070726576656E74656493
:1010D0000A00E7A7BBE58AA8202573206D6D0000F4
:1010E000E7A7BBE58AA820302E31206D6D00E7A769
:1010F000BBE58AA82031206D6D00E7A7BBE58AA873
:10110000203130206D6D00E7A7BBE58AA8E8BDB4AB
:1011100000486F74656E6420746F6F20636F6C6439
:1011200000E68CA4E587BAE69CBA00E7A7BBE58A8F
:10113000A85A00E7A7BBE58AA85900E7A7BBE58A3C
:10114000A85800E4BB8EE5AD98E582A8E58DA1E442
:10115000B88AE68993E58DB000E5BD92E4BD8D20A7
:1011600025732573257320E5858800220A00556EB6
:101170006B6E6F776E20636F6D6D616E643A2022C7
:101180000000002043000048430000FA4200000035
:10119000000000000000000000290A0020627974AD
:1011A00065733B20637263200053657474696E67D6
:1011B000732053746F726564202800454550524F68
:1011C0004D206461746173697A65206572726F7213
:1011D0002E0A00290A002062797465733B2063722D
:1011E0006320002073746F72656420736574746982
:1011F0006E67732072657472696576656420280075
:10120000202863616C63756C6174656429210A0030
:1012100020213D2000454550524F4D204352432050
:101220006D69736D61746368202D202873746F720B
:1012300065642920002053697A653A2000496E646C
:1012400065783A2000204D61726C696E3D563732E8
:10125000290A00454550524F4D2076657273696FDB
:101260006E206D69736D6174636820284545505226
:101270004F4D3D007C3C3E5E2B3D3F2F5B5D3B2C4C
:101280002A225C0024F4D43050C38E20C2A240171E
:10129000828B7011127A910D816CD90AA861E108D4
:1012A000C7586607615143061E4B5D05C145A7043B
:1012B0001A411104093D9803713931034036DB02AC
:1012C00065339102D4305402802E1D02632CEE014E
:1012D000752AC501B028A001102781018F2564015E
:1012E0002B244B01E0223401AC211F018D200D0184
:1012F000801FFC00841EED00971DDF00B81CD2008B
:10130000E61BC600201BBC00641AB200B219A8007C
:101310000A19A0006A189900D117910040178B0094
:10132000B516840031167E00B31579003A157300A6
:10133000C7146F0058146A00EE1366008813630028
:1013400025135E00C7125B006C1257001512540083
:10135000C111510070114F0021114B00D6104900EE
:101360008D1047004610440002104200C00F40009C
:10137000800F3E00420F3C00060F3B00CB0E3800B2
:10138000930E37005C0E3500270E3400F30D32004B
:10139000C10D3100900D3000600D2E00320D2D007A
:1013A000050D2C00D90C2B00AE0C2900850C290052
:1013B0005C0C2700350C27000E0C2600E80B2400DF
:1013C000C40B2400A00B23007D0B23005A0B21002B
:1013D000390B2100180B2000F80A1F00D90A1E0043
:1013E000BB0A1E009D0A1D00800A1D00630A1C0026
:1013F000470A1B002C0A1B00110A1A00F7091A00E1
:10140000DD091900C4091900AB0919009209170078
:101410007B091800630917004C09160036091600ED
:10142000200916000A091500F5081500E008140047
:10143000CC081400B8081400A40814009008130085
:101440007D0812006B0813005808120046081200AD
:1014500034081100230811001208110001081100BE
:10146000F0071000E0071000D0071000C0071000C0
:10147000B0070F00A107100091070E0083070F00AF
:1014800074070F0065070E0057070E0049070E008E
:101490003B070D002E070E0020070D0013070D005F
:1014A00006070D00F9060C00ED060D00E0060C0025
:1014B000D4060C00C8060C00BC060C00B0060C00DC
:1014C000A4060B0099060C008D060B0082060B008B
:1014D00077060B006C060B0061060A0057060B002E
:1014E0004C060A0042060A0038060A002E060A00C8
:1014F00024060A001A060A001006090007060A0058
:10150000FD050900F4050900EB050900E2050900E5
:10151000D9050900D0050900C7050900BE05090065
:10152000B5050800AD050800A50509009C050800E3
:10153000940508008C050800840508007C05080057
:10154000740508006C050700650508005D050700C7
:10155000560508004E05070047050700400508002E
:1015600038050700310507002A0507002305070095
:101570001C050600160507000F05070008050600F4
:1015800002050700FB040600F5040700EE04060050
:10159000E8040600E2040700DB040600D5040600A8
:1015A000CF040600C9040600C3040600BD040600FB
:1015B000B7040600B1040500AC040600A60406004A
:1015C000A00405009B040600950405009004060095
:1015D0008A04050085040500800406007A040500DD
:1015E00075040500700405006B0405006604050021
:1015F000610405005C040500570405005204050061
:101600004D04050048040500430405003E040400A1
:101610003A04050035040500300404002C040500DC
:1016200027040400230405001E0404001A04040017
:1016300016040500110404000D040400090405004B
:101640000404040000040400FC030400F803040084
:10165000F4030400F0030400EC030400E8030400B6
:10166000E4030400E0030400DC030400D8030400E6
:10167000D4030400D0030400CC030400C803030017
:10168000C503030024F404D9201BC40C5C0E980489
:10169000C4095F0265077101F405F900FB04B3009A
:1016A00048048700C103690058035500030345003F
:1016B000BE023A008402310053022A0029022500AA
:1016C00004022000E4011C00C8011900AF0117004A
:1016D00098011400840113007101100061011000D1
:1016E00051010E0043010D0036010B002B010B00D0
:1016F00020010B00150109000C010900030108007D
:10170000FB000800F3000800EB000700E4000600FF
:10171000DE000600D8000600D2000600CC0005005E
:10172000C7000500C2000500BD000400B9000400A8
:10173000B5000400B1000400AD000400A9000400DD
:10174000A5000300A20003009F0004009B0003000B
:10175000980003009500020093000300900003002E
:101760008D0002008B00030088000200860002004A
:1017700084000300810002007F0002007D0002005F
:101780007B00020079000200770001007600020071
:101790007400020072000100710002006F0002007C
:1017A0006D0001006C0002006A0001006900020087
:1017B000670001006600010065000100640002008E
:1017C0006200010061000100600001005F00020092
:1017D0005D0001005C0001005B0001005A00010097
:1017E0005900010058000100570001005600010097
:1017F0005500010054000100530000005300010097
:101800005200010051000100500001004F00010092
:101810004E0000004E0001004D0001004C00010090
:101820004B0000004B0001004A000100490001008C
:101830004800000048000100470001004600000089
:101840004600010045000000450001004400010081
:10185000430000004300010042000000420001007C
:101860004100000041000100400001003F00000075
:101870003F0001003E0000003E0001003D0000006E
:101880003D0001003C0000003C0000003C00010065
:101890003B0000003B0001003A0000003A0001005C
:1018A0003900000039000100380000003800000055
:1018B000380001003700000037000100360000004A
:1018C0003600000036000100350000003500000041
:1018D0003500010034000000340000003400010035
:1018E000330000003300000033000100320000002C
:1018F0003200000032000100310000003100000021
:101900003100010030000000300000003000010014
:101910002F0000002F0000002F0000002F0001000A
:101920002E0000002E0000002E0001002D000000FF
:101930002D0000002D0000002D0001002C000000F3
:101940002C0000002C0000002C0001002B000000E7
:101950002B0000002B0000002B0001002A000000DB
:101960002A0000002A0000002A00010029000000CF
:1019700029000000290000002900000029000100C2
:1019800028000000280000002800000028000000B7
:1019900028000100270000002700000027000000A9
:1019A000270000002700010026000000260000009C
:1019B000260000002600000026000100250000008F
:1019C0002500000025000000250000002500000083
:1019D0002500010024000000240000002400000075
:1019E0002400000024000100230000002300000068
:1019F000230000002300000023000000230000005B
:101A0000230001002200000022000000220000004C
:101A1000220000002200000022000100210000003E
:101A20002100000021000000210000002100000032
:101A30002100000021000100200000002000000023
:101A40002000000020000000200000002000000016
:101A500020000000200001001F0000001F00000007
:101A60001F0000001F0000001F0000001F000000FA
:101A70001F0001001E0000001E0000001E000000EC
:101A80001E000000A42C0000841E0000B012000004
:101A9000870A00009E050000E90200007B010000AB
:101AA000BF00000000060C00FE00000000009A9A33
:101AB00000080000000207070C0601C0C00000007B
:101AC000C0C000060C00FE0000000000C4C4000AF4
:101AD000FF00000B0B160C00FF11007FC01100FF70
:101AE000E004003F8024803F8024803F8060C0006D
:101AF000060C00FE0000000000D8D8000AFF00001D
:101B00000B0B160C00FF0400FFE000001F0011008B
:101B10007FC040405F4051405F4040C000060C0025
:101B2000FE0000000000F1F1000AFF00000B0B16A0
:101B30000C00FFF3E012005220532052A07A400A1A
:101B400040EAA00B200A0033E000060C00FE000073
:101B5000000000F1F1000AFF00000B0B160C00FF63
:101B6000440047C07C409740AD402540274024C0FA
:101B70002C20342023E000060C00FE0000000000B2
:101B8000CECE000AFF00000B0B160C00FF7F80403A
:101B900080428052804C8044804C80528062A08081
:101BA00060802000060C00FE00000000009D9D00EB
:101BB0000AFF00000B0B160C00FF23E0FC8087E0FF
:101BC0007A20CAA032A04AA0FEA04AA079404E20A6
:101BD00000060C00FE00000000008484000AFF00E4
:101BE000000B0B160C00FFFBE0108063E02220FAD4
:101BF000A02AA022A022A022A02140662000060C3C
:101C000000FE0000000000F9F9000AFF00000B0BC5
:101C1000160C00FF07E0F90027E0242025202520EE
:101C200025203D20C18002400C2000060C00FE0053
:101C300000000000DEDE000AFF00000B0B160C00A7
:101C4000FF0A000A00FBE00A000A007BC00A000A43
:101C500000FBE00A000A0000060C00FE0000000085
:101C600000D2D2000AFF00000B0B160C00FF04008C
:101C70007FC004003F800400FFE010801F801080C0
:101C80001F80108000060C00FE0000000000E4E44D
:101C9000000AFF00000B0B160C00FFF1009280A45D
:101CA00040CBA0A1009FE09100E5408920912083D6
:101CB0000000060C00FE0000000000CDCD000AFF71
:101CC00000000B0B160C00FFF20093E0A640C18051
:101CD000A660910097E0D500AFE08100810000068A
:101CE0000C00FE0000000000F4F4000AFF00000AEF
:101CF0000B160C01FF4FC0204080409E4092409E3A
:101D000040924092409E40804081C000060C00FE00
:101D10000000000000EDED000AFF00000B0B160CA8
:101D200000FF47E0202082208220BFA086208A205A
:101D30009220A220862080E000060C00FE00000019
:101D40000000FFFF000AFF00000A0B160C01FF2134
:101D5000002200240028003000FFC02800240022B8
:101D600000290030C000060C00FE0000000000AE9C
:101D7000AE000AFF00000B0B160C00FF5C8047E072
:101D800068A08BE0FCA047E0E48057E048806C80CE
:101D900053E000060C00FE00000000009999000AC4
:101DA000FF00000B0B160C00FF42804FE072808298
:101DB00080EFE04000F7C0444047C0544067C00097
:101DC000060C00FE0000000000AEAE000AFF00009E
:101DD0000B0B160C00FF400047C079408140F940D2
:101DE00027C0FA4022402A4032402FE000060C0073
:101DF000FE00000000008888000AFF00000B0B16A0
:101E00000C00FF4080408078808080FBE02080F8DC
:101E100080208028803080208000060C00FE00009A
:101E2000000000CFCF000AFF00000B0B160C00FFD4
:101E30003F8020803F802080FFE024803F802480FE
:101E40007FC00400FFE000060C00FE000000000060
:101E5000CDCD000AFF00000B0B160C00FF7FC00465
:101E600000FFE024803F8024803F8004007FC00486
:101E700000FFE000060C00FE0000000000CACA00DF
:101E80000AFF00000B0B160C00FF1FC0E280A90028
:101E90007280FD6031006FC0A100AFE02100210021
:101EA00000060C00FE0000000000E8E8000AFF0049
:101EB000000B0B160C00FF11E0FF2045202940FF0E
:101EC0008001407D20452045A07D40450000060C56
:101ED00000FE00000000009F9F000AFF00000B0BA7
:101EE000160C00FF41003FE021000FE0E9202FE049
:101EF00023802540292051008FE000060C00FE00C1
:101F0000000000008989000AFF00000B0B160C007E
:101F1000FF4500250027C00900EFE0228022A02411
:101F2000A0286050008FE000060C00FE00000000BA
:101F3000008080000AFF00000B0B160C00FF8FC012
:101F400048404FC00840CFC048004B4048804E40FA
:101F5000B0008FE000060C00FE0000000000DBDB9C
:101F6000000AFF00000B0B160C00FF448024802F9A
:101F7000C00480E4803FE024802480288050808F4B
:101F8000E000060C00FE0000000000D8D8000AFFA8
:101F900000000B0B160C00FF4FE020802100010019
:101FA000E340252029202100210050008FE0000679
:101FB0000C00FE0000000000D4D4000AFF00000B5B
:101FC0000B160C00FF40602780240007E0E6202568
:101FD0004024802940262050008FE000060C00FE9F
:101FE0000000000000D0D1000AFF00000B0B160C0F
:101FF00000FF47C0200020000FE0E20022802440C4
:102000002FA0242050008FE00B0B160C00FF40C0C7
:102010002700240007E0E480248024802480288096
:1020200050008FE000060C00FE0000000000B9B96F
:10203000000AFF00000B0B160C00FF410021002FCF
:10204000E00120E12021202220242028C050008F00
:10205000E000060C00FE00000000009393000AFF61
:1020600000000B0B160C00FF41004280F4404BA017
:10207000A000FE202AA03EA0EAA02EA02A60000612
:102080000C00FE00000000009191000AFF00000B10
:102090000B160C00FF23C0FA4043C06000A7E0FA13
:1020A0004023403AC0E2602FC0204000060C00FEF2
:1020B0000000000000FDFD000AFF00000B0B160CE5
:1020C00000FF11007D401120FFE02100FD20514064
:1020D0007C8010A0FD60122000060C00FE000000B5
:1020E0000000F4F4000AFF00000B0B160C00FF20A8
:1020F00080F88047E064A0A4A0FCA027E03CA0E416
:10210000A027E0242000060C00FE0000000000A52F
:10211000A5000AFF00000B0B160C00FFF900890058
:10212000A9E0A940AB40AD40A940214050804940C2
:102130008A2000060C00FE00000000008383000AD5
:10214000FF00000B0B160C00FF4FE029200BA0E94D
:10215000202FE028202BA02AA03BA0282010E00060
:10216000060C00FE0000000000F7F7000AFF000068
:102170000B0B160C00FF41002FE0210007C0E1000F
:102180002FE0244027C0244037C0244000060C0024
:10219000FE0000000000EFEF000AFF00000B0B162E
:1021A0000C00FF47C02440044007C0E00027C021C6
:1021B000002FE032802440082000060C00FE0000C2
:1021C000000000D5D5000AFF00000B0B160C00FF25
:1021D000414021201FE00100EF002500250024A040
:1021E00026A03860202000060C00FE000000000041
:1021F000BEBE000AFF00000B0B160C00FF47802438
:1022000080048008E0E0002FC024402280310022BA
:10221000801C6000060C00FE0000000000AEAE0056
:102220000AFF00000B0B160C00FF42002140054086
:102230000440E4402280228029003280244008208B
:1022400000060C00FE0000000000A1A1000AFF0033
:10225000000B0B160C00FF4100210001000FE0E114
:102260000021002100290031002100010000060C9E
:1022700000FE0000000000D2D2000AFF00000A0B9E
:10228000160C00FF10001F0022007FC0A4403FC0BA
:1022900024403FC024404540808000060C00FE00E2
:1022A00000000000C5C5000AFF00000B0B160C0063
:1022B000FF11009FE051003100D7C01200FFE00C79
:1022C000403280D10018E000060C00FE0000000043
:1022D00000ABAB000AFF00000B0B160C00FF4080A8
:1022E0002080FFE014A02C8077E0AD4025402480C2
:1022F0002940362000060C00FE0000000000CCCC77
:10230000000AFF00000B0B160C00FF27C0400080E6
:102310000010002FE06080A080208020802080239B
:102320008000060C00FE0000000000DDDD000AFF5A
:1023300000000B0B160C00FF1100FFE01100520013
:1023400053C0550010807FC04A404A40FFE000065D
:102350000C00FE0000000000DCDC000AFF00000BA7
:102360000B160C00FF1100FFE0110001C07E802859
:10237000801500FFE015002480C46000060C00FEFC
:102380000000000000EAEA000AFF0000070B0B0C47
:1023900002FF20FE8282FE82FE8282FE8200060C06
:1023A00000FE0000000000EAEA000AFF00000B0B3C
:1023B000160C00FF0440FA8057C05440744057C0C8
:1023C00071005AA0F6A01A4011C000060C00FE00D1
:1023D00000000000F2F2000AFF00000B0B160C00D8
:1023E000FF7FE049207FE004403F800500FFE030B0
:1023F00080DF8010801F8000060C00FE00000000BF
:1024000000EEEE000AFF00000B0B160C00FF7FC071
:102410004A407FC00400FFE020803F8020803F8052
:102420002080FFE000060C00FE0000000000D1D17B
:10243000000AFF00000A0B160C01FFFFC08040914C
:1024400040D540A2409240AD40C540884080408188
:10245000C000060C00FE0000000000BABA000AFF2F
:1024600000000B0B160C00FF410041007BC0A14097
:102470002140FFE02100A900AA80FA4004200006C4
:102480000C00FE00000000009696000AFF00000B02
:102490000B160C00FF21002FE048205FE0E8002F22
:1024A000E04AA0FFE00AA03AA0C86000060C00FEC7
:1024B0000000000000FFFF000AFF00000B0B160CDD
:1024C00000FF27C0204043C0F0402FE04120F540EE
:1024D00003803540C920030000060C00FE00000008
:1024E0000000EDED000AFF00000B0B160C00FF21B1
:1024F0000027C0410057E0E4A02A804480EFE001BB
:102500000032C0CC2000060C00FE0000000000EAF3
:10251000EA000AFF00000B0B160C00FF210027A0A9
:10252000494057E0E10023E04620F3E00A2033E091
:10253000C22000060C00FE0000000000E7E7000AD1
:10254000FF00000B0B160C00FF248026A045C05492
:1025500080E7E0248045C0F6A004803480C7E00016
:10256000060C00FE0000000000DFDF000AFF000094
:102570000B0B160C00FF21002FE042005440EFE04F
:1025800022A04280F28002A034A0C8E000060C0025
:10259000FE0000000000C8C8000AFF00000B0B1678
:1025A0000C00FF220023C05440EA8021004280EC4E
:1025B00060010030C0C30000C000060C00FE000037
:1025C000000000C6C6000AFF00000B0B160C00FF3F
:1025D000200027E044A054A0E4A027E044A0F4A0F9
:1025E00004A037E0C42000060C00FE00000000003C
:1025F000BFBF000AFF00000B0B160C00FF22802259
:102600004043C04E00E3E02E004240F280092032F9
:10261000A0CC6000060C00FE0000000000A2A2009A
:102620000AFF00000B0B160C00FF200027C0410022
:102630005100E10021004100F10001003100CFE034
:1026400000060C00FE0000000000ABAB000AFF001B
:10265000000B0B160C00FF110051405D805120FD56
:10266000E008803F0008807FC02480CC6000060C1A
:1026700000FE0000000000FBFB000AFF00000B0B47
:10268000160C00FF24801500FFE015002480404058
:102690000400FFE00A001100E0E000060C00FE006C
:1026A00000000000A1A1000AFF00000B0B160C00A7
:1026B000FF21003DE05280FFE080203F8020803FEE
:1026C000C0204020403FC000060C00FE000000007B
:1026D00000C9C9000AFF00000B0B160C00FF4200E6
:1026E0007BE094807FC00400FFE001007FC0110008
:1026F0000900030000060C00FE0000000000EFEFE0
:10270000000AFF00000B0B160C00FF81004520F7AC
:10271000E00000AFE0A100AFE04AA06AA08AA008F4
:102720006000060C00FE0000000000FBFB000AFF3A
:1027300000000B0B160C00FF1100E3E02420FA4010
:102740002180368029E06220A540208027000006F5
:102750000C00FE0000000000EFEF000AFF00000B7D
:102760000B160C00FF1800E3E02220FA2022207351
:10277000E06800A240A2402420282000060C00FEB1
:102780000000000000A0A0000AFF00000B0B160CC8
:1027900000FF07E0F42097E0F480948097E0F48055
:1027A0009480F4A09660042000060C00FE00000057
:1027B00000008181000AFF00000B0B160C00FF04D3
:1027C000001480256046201F803080DF8010801F2D
:1027D0008010801F8000060C00FE0000000000F446
:1027E000F4000AFF00000B0B160C00FF0400FFE0D2
:1027F00004003F8020803F8020803F802080208018
:10280000FFE000060C00FE00000000008484000AC7
:10281000FF00000A0B160C01FF22004200F7C098CF
:10282000409040F440924092409040F040918000AF
:10283000060C00FE0000000000FDFD000AFF000085
:10284000080B0B0C02FF1020FF8181FF818181FFAB
:102850008100060C00FE0000000000B5B5000AFF74
:1028600000000A0B160C01FF08000800FF8088809A
:10287000FF8088808880FF800840084007C00006ED
:102880000C00FE0000000000A8A8000AFF00000ADB
:102890000B160C00FF7FC0444044407FC0444044BE
:1028A000407FC044404440844084C000060C00FE89
:1028B00000000000008787000AFF00000B0B160CC9
:1028C00000FF0400FFE0884052800C002A80DF40B7
:1028D0000400FFE00400040000060C00FE000000FD
:1028E0000000F9F9000AFF00000B0B160C00FF2195
:1028F00000A7C0F100A100AFE030806FE0A480220B
:10290000802080238000060C00FE0000000000C72D
:10291000C7000AFF00000B0B160C00FF210021006E
:1029200021003FE0200020003F8020802080408068
:10293000808000060C00FE0000000000EDED000AA3
:10294000FF00000B0B160C00FF2200F780228032E4
:10295000806680A38024A068600000524089200027
:10296000060C00FE0000000000B9B9000AFF0000DC
:102970000B0B160C00FF0400040007C004003F808E
:10298000208020803F8000005240892000060C00FB
:10299000FE0000000000EFEF000AFF00000B0B1626
:1029A0000C00FF100017E054805880508090801079
:1029B00080108028804480818000060C00FE00008A
:1029C000000000C0C0000AFF00000B0B160C00FF47
:1029D00044803E8012E09EA053A03EA028A0DFA02D
:1029E0004A4052A0652000060C00FE0000000000D6
:1029F0009090000AFF00000B0B160C00FF4FE02820
:102A0000808BE04A201BE02A202BE0C8804AC0547B
:102A1000A069A000060C00FE0000000000A9A900AB
:102A20000AFF00000B0B160C00FF47C0244007C034
:102A3000944057C020002FE0CAA04AA04AA05FE0FF
:102A400000060C00FE00000000008585000AFF0063
:102A5000000B0B160C00FF41002FE0010097C05146
:102A6000002FE02440C74045C0444044C000060C4D
:102A700000FE0000000000E1E1000AFF00000B0B77
:102A8000160C00FF41002540098082805440292017
:102A90002540C580490042805C6000060C00FE00B5
:102AA000000000008888000AFF00000B0B160C00D5
:102AB000FF49202540810057E0142027E02420C74B
:102AC000E044204420446000060C00FE00000000AA
:102AD00000CBCB000AFF00000B0B160C00FFBE2042
:102AE00062A02AA0AAA06AA02AA02AA0C8A0542056
:102AF000622040E000060C00FE0000000000BBBBAE
:102B0000000AFF00000B0B160C00FF40C0270081DD
:102B1000005FE01100210027C0C440444047C0448A
:102B20004000060C00FE0000000000E2E2000AFF88
:102B300000000B0B160C00FF410021008FE0492024
:102B400019002FC02840CA80490052806C600006DE
:102B50000C00FE0000000000A1A1000AFF00000B15
:102B60000B160C00FF47802480848048E010002F63
:102B7000C024804280C3004480586000060C00FEE0
:102B80000000000000D4D4000AFF00000A0B160C5D
:102B900001FF8400840084808500F60084008400A6
:102BA0008400B440C44083C000060C00FE00000056
:102BB0000000E5E5000AFF00000B0B160C00FF0407
:102BC0000027C024002400FFE004001440248041BA
:102BD000000600F80000060C00FE0000000000E205
:102BE000E2000AFF00000A0B160C01FF04000400BB
:102BF0000400240027802400240024002400240052
:102C0000FFC000060C00FE0000000000D9D9000A39
:102C1000FF00000B0B160C00FF2F402AA0F44027EA
:102C2000C0382027C06440A7C0244022802FE00085
:102C3000060C00FE0000000000FDFD000AFF000081
:102C40000B0B160C00FF22802FE0FAA02FE02AA029
:102C50003FE06440A7C0244027C0244000060C0089
:102C6000FE0000000000C0C0000AFF00000B0B16B1
:102C70000C00FF21002280FC40282027C070006942
:102C800020A4A0224022802FE000060C00FE0000BD
:102C9000000000BCBC000AFF00000B0B160C00FF7C
:102CA000220023C0F4402A80210072806C60A7C0FB
:102CB0002440244027C000060C00FE000000000055
:102CC000A1A1000AFF00000B0B160C00FF2200213F
:102CD000002FE0F000228074406AA0A28021002230
:102CE000802C6000060C00FE0000000000F1F100E6
:102CF0000AFF00000B0B160C00FF22002100FFE072
:102D0000210071006900A7C0A100210021002FE06F
:102D100000060C00FE0000000000FFFF000AFF009C
:102D2000000B0B160C00FF20C02700FC002400271E
:102D3000C074406E40A58028802940362000060CD3
:102D400000FE0000000000E5E5000AFF00000B0B9C
:102D5000160C00FF04007FC024801500FFE0040073
:102D60000E0015002480C460040000060C00FE0064
:102D700000000000E1E1000AFF00000B0B160C0050
:102D8000FF10001F80290046000A003580C4603F04
:102D90008015002480DC4000060C00FE00000000CE
:102DA00000C0C0000AFF00000B0B160C00FF2080C3
:102DB00019000600190064C00400FFE0150024801B
:102DC000C4600C0000060C00FE0000000000BABA4F
:102DD000000AFF00000B0B160C00FF2000278024C8
:102DE00080FC80248074806C80A480A48028A03023
:102DF000E000060C00FE00000000008989000AFFC8
:102E000000000B0B160C00FF0800FFE010001F80F5
:102E100030805F8090801F801080108011800006BD
:102E20000C00FE00000000008080000AFF00000B84
:102E30000B160C00FF3F8020803F802080FFE04881
:102E4000007FC04A407980C9800E6000060C00FEF9
:102E50000000000000F4F4000AFF00000B0B160C49
:102E600000FF7FE002003FC022403FC022403FC041
:102E70000A0004001B00E0E000060C00FE00000059
:102E80000000ABAB000AFF00000B0B160C00FF119B
:102E9000E0FF0055E07D405540FFC010401FC010CE
:102EA000401FC0104000060C00FE00000000008221
:102EB00082000AFF00000B0B160C00FF2040FB8075
:102EC0005200FBE01280F4803F8020803F80208011
:102ED0003F8000060C00FE00000000008E8E000AFD
:102EE000FF00000B0B160C00FF03E0F22092209372
:102EF000E0F220922093E0F220042008A03040006D
:102F0000060C00FE0000000000F6F6000AFF0000BC
:102F10000B0B160C00FF0080F0809FE090809480E7
:102F2000F280928090809080F080038000060C00F8
:102F3000FE0000000000E0E0000AFF00000B0B169E
:102F40000C00FF7FC0040004000400FFE00A000A38
:102F500000120012202220C1E000060C00FE00003A
:102F6000000000B0B0000AFF00000B0B160C00FFC1
:102F70001060FD8045002900FDE01140FD4011403A
:102F800055409240344000060C00FE000000000056
:102F90009C9C000AFF00000B0B160C00FF10402940
:102FA0004044C0B84012407D40106055C05240922D
:102FB00040304000060C00FE00000000009999001F
:102FC0000AFF00000B0B160C00FF2080AC80728003
:102FD0002080FC80228030E06F80A08020802080D4
:102FE00000060C00FE0000000000F4F4000AFF00E0
:102FF000000B0B160C00FF1100FFE055407C8039E0
:103000004056207FC0040027802400FFE000060C0B
:1030100000FE0000000000F0F0000AFF00000B0BB3
:10302000160C00FF95005900FDE0334059409540D3
:10303000FD40294068801140EE2000060C00FE0093
:1030400000000000BEBE000AFF00000B0B160C00C3
:10305000FF21001100FDE022402540394029402891
:103060008049804A40942000060C00FE00000000C9
:1030700000B6B6000AFF00000B0B160C00FF120092
:10308000120093E094409A409240B280D100918027
:103090001240142000060C00FE0000000000D2D2F6
:1030A000000AFF00000B0B160C00FF20C02700F1E8
:1030B000002FE0210035606920AD6029202920EF34
:1030C000E000060C00FE0000000000A7A7000AFFB9
:1030D00000000B0B160C00FF21002FE0F8202280CF
:1030E0002440382067C0A10021002100EFE0000645
:1030F0000C00FE0000000000A2A2000AFF00000B6E
:103100000B160C00FF2FE02820F2802440292031EC
:10311000006FE0A10025802940F12000060C00FE90
:1031200000000000008989000AFF00000B0B160C4C
:1031300000FF210021E0F90027C02C4037C0644087
:10314000A7C021002FE0E10000060C00FE000000F7
:103150000000E2E2000AFF00000B0B160C00FF2249
:103160000023C0FC8027C02D4035406FE0A1002225
:10317000802440E82000060C00FE0000000000A4AF
:10318000A4000AFF00000B0B160C00FF210027E033
:10319000FA4021802E6030006240A240224024404C
:1031A000E84000060C00FE0000000000A1A1000A9B
:1031B000FF00000B0B160C00FF21002520FB402117
:1031C000002FE030206020A7E020202020EFE0004A
:1031D000060C00FE00000000008989000AFF0000C4
:1031E0000B0B160C00FF21002080FFE0252029009A
:1031F00037E06240A64021802280EC6000060C008F
:10320000FE0000000000E9E9000AFF00000B0B16B9
:103210000C00FF2FE02240F98022402C2031006773
:10322000C0A1002FE02100E10000060C00FE00001C
:10323000000000D4D4000AFF00000B0B160C00FFA6
:1032400022802240FFE022002BC032406540A48053
:1032500028802940E62000060C00FE000000000047
:10326000BDBD000AFF00000B0B160C00FF208020E4
:1032700080F88027E02CA034A067E0A4A024A02739
:10328000E0E42000060C00FE00000000009696001E
:103290000AFF00000B0B160C00FF20402240F940F3
:1032A00020402A40314060E0AF4020402040E040D4
:1032B00000060C00FE0000000000F9F9000AFF0003
:1032C000000B0B160C00FF24802480FC8024A02F10
:1032D000C034806480A48025A026A0E46000060C91
:1032E00000FE0000000000E7E7000AFF00000B0BF3
:1032F000160C00FF22002200FF8022802A803680E8
:103300006280A7A024A0A8A0506000060C00FE00C8
:1033100000000000D3D3000AFF00000B0B160C00C6
:10332000FF200027E0F8802080288030806080A087
:103330008020802080E38000060C00FE000000005A
:1033400000CBCB000AFF00000B0B160C00FF03C0E4
:103350007C0004007FC004000400FFE004000400BF
:1033600004000C0000060C00FE0000000000C7C7AF
:10337000000AFF00000B0B160C00FF04007FE0406A
:10338000207FE040007DE0442054A04C6054A0A980
:103390006000060C00FE0000000000C0C0000AFF34
:1033A00000000B0B160C00FF1860638042007A00CF
:1033B0004BE04A407A404240424044408840000648
:1033C0000C00FE0000000000B7B7000AFF00000A72
:1033D0000B160C00FF040002003FC0204020403FBD
:1033E000C02000200020004000800000060C00FEED
:1033F00000000000009090000AFF00000B0B160C6C
:1034000000FF028002407FE0420042007A404A40D2
:103410004A80492052A0846000060C00FE00000093
:103420000000EFEF000AFF00000B0B160C00FF0876
:10343000003F8020803F8020803F8020803F80545C
:103440004052A08F8000060C00FE0000000000E249
:10345000E2000AFF00000B0B160C00FF22002FE019
:10346000B200AA80A480A5A02AC0308021402240BA
:10347000242000060C00FE0000000000BBBB000A78
:10348000FF00000B0B160C00FF11000A003F80200C
:103490008020803F802080044052A050A08F800078
:1034A000060C00FE0000000000A7A7000AFF0000B5
:1034B0000B0B160C00FF21002500B500AFE0A900A2
:1034C000B10027C02100210021002FE000060C00E0
:1034D000FE0000000000C3C3000AFF00000B0B1633
:1034E0000C00FF0400020012001200104050205097
:1034F0002050A0908010800F8000060C00FE00007D
:10350000000000AEAE000AFF00000B0B160C00FF1F
:103510002A806A80BE8001E05D40C3405D405480E7
:1035200056805540622000060C00FE00000000009E
:103530008485000AFF00000B0B160C00FF17C0204B
:10354000804900928024406820A7C02100210021EA
:10355000002FE00B0B160C00FF1100210047C0915B
:10356000001FE020806FE0A4802280208021800066
:10357000060C00FE0000000000D2D2000AFF00008E
:103580000A0B160C01FF100017C0904090409040AD
:1035900097C09040904020404FC0804000060C00F3
:1035A000FE00000000008080000AFF00000B0B16E8
:1035B0000C00FF7FC01100110011001100FFE0118D
:1035C00000210021004100810000060C00FE0000E7
:1035D000000000A6A6000AFF00000B0B160C00FF5F
:1035E00004007FE049007FC049004F0040005F8039
:1035F00049008600B9C000060C00FE000000000073
:103600009F9F000AFF00000B0B160C00FF02003FFB
:10361000E02A802A403FE0240027C02A403180422F
:10362000408C2000060C00FE000000000094940076
:103630000AFF00000B0B160C00FF040002007FE0E5
:103640004000444052404A404880408081009FE012
:1036500000060C00FE00000000008A8A000AFF003D
:10366000000B0B160C00FF02007FE0420042007FBF
:10367000E0420047004A805240A220820000060C2F
:1036800000FE0000000000F6F6000AFF00000B0B31
:10369000160C00FF208011007FC0110011001100E6
:1036A000FFE0110011002100410000060C00FE00A7
:1036B00000000000F3F3000AFF00000B0B160C00E3
:1036C000FF7FC00400248015000400FFE004000414
:1036D0000004000400040000060C00FE00000000CE
:1036E00000F2F20009FF00000A0A140C01FFFF00BB
:1036F000010001008100FF00800080408040804088
:103700007FC000060C00FE0000000000E5E5000997
:103710000000000B09120C00007FC004000400042C
:10372000000400040004000400FFE000060C00FE9A
:103730000000000000CFCF000AFF00000B0B160CAA
:1037400000FF3FE020203FE0284024803FE024802D
:103750003FE024804880908000060C00FE000000BE
:103760000000B1B1000AFF00000B0B160C00FF11A6
:1037700000FD4001207FE04A807A8012805AA056E6
:10378000A092A0346000060C00FE00000000008F34
:103790008F000AFF00000B0B160C00FF0400040052
:1037A0000400248024404440442084200400140069
:1037B000080000060C00FE0000000000F9F9000AF5
:1037C000FF00000B0B160C00FF0080F0801FE09044
:1037D00080508024802280508050808280010000B0
:1037E000060C00FE0000000000B9B9000AFF00004E
:1037F0000B0B160C00FF0400FFE0912024804A40D0
:1038000011002080DF60110011001F0000060C0075
:10381000FE0000000000A2A2000AFF00000A0B1632
:103820000C01FF0800FFC090403F0052008C0033A5
:1038300000FFC0210021003F0000060C00FE000038
:103840000000009A9A000AFF00000B0B160C00FF04
:1038500004007FE0402080403FC004002400278017
:10386000240054008FE000060C00FE000000000061
:103870008C8C000AFF00000B0B160C00FF04007F6D
:10388000E040209F4000007FE00A0012001220224A
:103890002041E000060C00FE0000000000898900C5
:1038A0000AFF00000B0B160C00FF04007FE0402015
:1038B00088400800FFE0110031000E0009807060B0
:1038C00000060C00FE0000000000D8D8000AFF002F
:1038D000000B0B160C00FF0800FFE010002FC020AB
:1038E000806100BFE0210021002100270000060CBC
:1038F00000FE0000000000D0D0000AFF00000B0B0B
:10390000160C00FF3F800100020004000400FFE0ED
:103910000400040004001400080000060C00FE006F
:1039200000000000CBCB000AFF00000B0B160C00C0
:10393000FF21002100FA402A202FE0480053E03206
:10394000202A204BE0822000060C00FE0000000030
:1039500000B1B1000AFF00000B0B160C00FF2400A1
:1039600024003FC044000400FFE004000A001100EE
:103970002080C06000060C00FE0000000000A9AA24
:10398000000AFF00000B0B160C00FF7FC0040004B0
:10399000000400FFE004000A000A0011002080C0BB
:1039A000600B0B160C00FF040004000400FFE00491
:1039B000000A000A00110019002480C46000060CEF
:1039C00000FE0000000000A7A7000AFF00000B0B8C
:1039D000160C00FF040004000400FFE004000400D3
:1039E0000A000A0011002080C06000060C00FE00E2
:1039F000000000009A9A000AFF0000090B160C0153
:103A0000FF08001F00210052000C003400CF80107E
:103A10008069000600F80000060C00FE00000000AF
:103A2000009696000AFF00000B0B160C00FF210009
:103A300021003D0025004580A54019200900110006
:103A40002100410000060C00FE00000000008D8DEA
:103A5000000AFF00000B0B160C00FF20003FE06087
:103A600080BF8020803F8010003F80C9000600F9A1
:103A7000E000060C00FE00000000008787000AFF3F
:103A800000000B0B160C00FF10001F8031004E00D1
:103A90000B0030E0FF8024803F8024803F800006C0
:103AA0000C00FE0000000000F3F3000AFF00000B12
:103AB0000B160C00FF0400FFE004003FC00000FFF5
:103AC000E080201F0011202120C0E000060C00FE35
:103AD0000000000000EBEB000AFF00000B0B160CCF
:103AE00000FF21002FE02100F7C02440274025C01F
:103AF0003440EFE002800C6000060C00FE00000085
:103B00000000ABAB000AFF00000B0B160C00FF22FD
:103B100000FF80228036A0E3A02CE0640004003F78
:103B2000C00400FFE000060C00FE00000000008B57
:103B30008B000AFF00000B0B160C00FF7E40294093
:103B40002940FF40294028404CC004003F80040029
:103B5000FFE000060C00FE0000000000D7D7000ABE
:103B6000FF00000B0B160C00FF2100210027C0F9FD
:103B700040214021402FE03100C280044018200045
:103B8000060C00FE0000000000A8A8000AFF0000CC
:103B90000A0B160C01FF08000800FFC010002200ED
:103BA0006200AF802200220022003FC000060C000D
:103BB000FE0000000000FEFE000AFF00000A0B16D7
:103BC0000C01FFFFC090409F40B240CC409240E9C2
:103BD000C0844088408440FFC000060C00FE000006
:103BE000000000E0E0000AFF00000B0B160C00FFD5
:103BF000FFE084208420BFA0842084208A2091209C
:103C0000A0A08020FFE000060C00FE0000000000E5
:103C1000DEDE000AFF00000A0B160C01FFFFC08069
:103C20004080409E40924092409E4092408040FFA3
:103C3000C0804000060C00FE0000000000F4F4000C
:103C40000AFF00000B0B160C00FF0100EFE0A5407F
:103C5000AFE0A440A7C0E44007C0044007C00C6028
:103C600000060C00FE0000000000B4B4000AFF00D3
:103C7000000B0B160C00FF02A0EBC0AAA0BFE0A433
:103C800080AFE0F9200FE009200FE0112000060CC2
:103C900000FE0000000000B7B7000AFF00000B0B99
:103CA000160C00FF0100EFE0A540AFE0A440AFE03C
:103CB000E820A920092002800C6000060C00FE000C
:103CC000000000008C8C000AFF00000B0B160C009B
:103CD000FF0C00700011E0FD201120392035205527
:103CE00020912011E0100000060C00FE00000000F2
:103CF00000FDFD000AFF00000B0B160C00FF040086
:103D00000A001100EEE000007BC04A404A407A40C1
:103D10004AC0020000060C00FE0000000000AFAF29
:103D2000000AFF00000A0B160C00FF04003FC02031
:103D30004020403FC020003FC0304050405FC09016
:103D40004000060C00FE00000000008E8E000AFFFE
:103D500000000B0B160C00FF01C03E0020003FE0EE
:103D6000200020002FC0284048404FC08840000657
:103D70000C00FE00000000008888000AFF00000B15
:103D80000B160C00FF04000A0011002080DF600009
:103D9000003F80208020803F80208000060C00FEB5
:103DA0000000000000F0F0000AFF0000090B160CF4
:103DB00001FF0800100022004100FF8000807F000A
:103DC0004100410041007F0000060C00FE000000A1
:103DD0000000D8D8000AFF00000A0B160C01FF08EB
:103DE00000FFC012005280924000007F8012000C41
:103DF000001200E1C000060C00FE0000000000D62A
:103E0000D6000AFF00000B0B160C00FFFC004BE075
:103E10004A207A204940794048804C80F9400A4045
:103E20000C2000060C00FE0000000000CCCC0009B5
:103E3000FF00000B0A140C00FFFFE00A404A402A72
:103E40004011401140288045808240042000060C2B
:103E500000FE00000000009F9F000AFF00000B0B07
:103E6000160C00FF3FE022002FC028402FC0284042
:103E70002FC022002A805260A62000060C00FE00FF
:103E800000000000F8F8000AFF00000B0B160C0001
:103E9000FF40007DE091201120FF2011205D205186
:103EA0002051A05D40E10000060C00FE0000000073
:103EB00000F0F0000AFF00000A0B160C01FF1000D2
:103EC000E7C084408440F440844084409440E580CE
:103ED0008400040000060C00FE0000000000E1E188
:103EE000000AFF00000B0B160C00FF08000F8008F3
:103EF000000800FFE008000A000900088008000828
:103F00000000060C00FE0000000000D5D5000AFFEE
:103F100000000B0B160C00FF11000A007FC044408C
:103F20007FC044407FC00400FFE00400040000069E
:103F30000C00FE0000000000CFCF000AFF00000BC5
:103F40000B160C00FF420042004F80E28042804A84
:103F5000C052A0448044804A80510000060C00FEFC
:103F60000000000000CACA000AFF00000B0B160C7C
:103F700000FF04004440248015007FC004000400BA
:103F8000FFE004000400040000060C00FE00000036
:103F900000009696000AFF00000B0B160C00FF12A3
:103FA000001200224022806300A20026002A002284
:103FB00020222021E000060C00FE0000000000A8E6
:103FC000A8000AFF00000B0B160C00FF010079008F
:103FD000010003E0FD20212021204920FA200A20B1
:103FE00004C000060C00FE0000000000A0A0000AB3
:103FF000FF00000B0B160C00FF20002000FDE02549
:10400000202520252025202520452055E089200039
:10401000060C00FE00000000009B9B000AFF000051
:10402000090B160C01FF080008000800FF8008803B
:1040300008801080108020804080870000060C00DF
:10404000FE0000000000B6B7000AFF00000B0B16D0
:104050000C00FF102050A07EA090A0FEA010A07E1B
:10406000A052A05220562010E00B0B160C00FF7E31
:104070002042207EA048A048A07EA06AA0AAA0AAB4
:10408000A02E2008E000060C00FE0000000000B09A
:10409000B0000AFF00000B0B160C00FFFE201020E2
:1040A00020A044A0FEA010A07CA010A010201E20E4
:1040B000E0E000060C00FE00000000009D9D000AEC
:1040C000FF00000B0B160C00FF400027E0F9201149
:1040D0002021206920B12029202220242028C0006E
:1040E000060C00FE00000000009B9B000AFF000081
:1040F0000B0B160C00FF1020182024A042A0BCA01F
:1041000024A024A038A0222022201E6000060C003B
:10411000FE00000000008686000AFF00000B0B1660
:104120000C00FF11001100208020804040BFA0083B
:1041300080088010802080C30000060C00FE000074
:10414000000000FAFB000AFF00000B0B160C00FF3A
:1041500004004440444044407FC004008420842044
:1041600084208420FFE00B0B160C00FF04000400E9
:104170007FC004000400FFE0040044404440444089
:104180007FC000060C00FE0000000000C9C9000A44
:10419000FF00000B0B160C00FF81004FE0400007F2
:1041A000C02440244027C0C100454049205320007E
:1041B000060C00FE0000000000C6C6000AFF00005A
:1041C0000B0B160C00FF0A0089004FE05900090094
:1041D0002FC02900CFC0490049004FE000060C0065
:1041E000FE0000000000B7B7000AFF00000B0B162E
:1041F0000C00FF8200420005002880326041004F21
:10420000C0808087008100008000060C00FE000056
:10421000000000F7F7000AFF00000B0B160C00FF70
:104220003F8020803F8020803F8020803F80208012
:10423000FFE01100E0E000060C00FE0000000000BE
:10424000F3F3000AFF00000B0B160C00FF20801197
:10425000007FC004000400FFC004000A0011002019
:1042600080C06000060C00FE0000000000F1F100BC
:104270000AFF00000B0B160C00FF110011007FC09D
:10428000110011001100FFE00000110020804040EB
:1042900000060C00FE0000000000E8E8000AFF0035
:1042A000000B0B160C00FF04000A0011002080DF39
:1042B00060040004001F00040004007FC000060C1E
:1042C00000FE0000000000E5E5000AFF00000B0B07
:1042D000160C00FF18000400040004000A000A0085
:1042E0001100110020804040802000060C00FE00DC
:1042F00000000000C8C8000AFF00000B0B160C00ED
:10430000FF040024003FC044008400FFE0120012BC
:104310000012202220C1E000060C00FE0000000078
:1043200000C5C5000AFF00000A0B160C01FF0400BF
:10433000FFC0080011007F8012801200120022408E
:104340002240C1C000060C00FE0000000000A8A82A
:10435000000AFF00000B0B160C00FF612057C04144
:104360004077E0D10053C0564053C05A40524043BA
:10437000C000060C00FE0000000000DCDC000AFFAC
:1043800000000B0B160C00FF22003FE020004FC086
:104390004840DFE050204FC0410041004700000688
:1043A0000C00FE0000000000CFCF000AFF00000B51
:1043B0000B160C00FF21002FE028202FE06800AF33
:1043C000E02AA02FE02AA03AA0286000060C00FEF8
:1043D0000000000000BCBC000AFF00000B0B160C24
:1043E00000FF11001FE0220027C06440A7C0244046
:1043F000274025C024402FE000060C00FE000000EE
:104400000000E1E1000AFF00000B0B160C00FF1298
:104410000011002FE0200067C0A00027C020002767
:10442000C0244027C000060C00FE0000000000DD94
:10443000DD000AFF00000B0B160C00FF17C0144034
:10444000244027C06100AFE02100238025402920BF
:10445000210000060C00FE00000000009B9B000AEB
:10446000FF00000B0B160C00FF1480148024802F1B
:10447000E06480A4803FE0200024802840302000B9
:10448000060C00FE0000000000DCDC000AFF00005B
:104490000B0B160C00FF1400140027E02A0072001A
:1044A000A3C02200220023E02200220000060C000C
:1044B000FE0000000000CDCE000AFF00000B0B162E
:1044C0000C00FF1200110020002FE06000A4402229
:1044D000402280208021002FE00B0B160C00FF10E3
:1044E000C01F00290029006900AFE0290029202A07
:1044F000A02D6028A000060C00FE00000000009126
:1045000091000AFF00000B0B160C00FF11001100B8
:1045100021003FE06100A380238025402920310055
:10452000210000060C00FE0000000000FDFD000A56
:10453000FF00000B0B160C00FF108012802240249D
:10454000406820A7C0224022402240244028C000CA
:10455000060C00FE0000000000E4E4000AFF00007A
:104560000B0B160C00FF040004000A00110024804D
:10457000C2603F8001000A000400020000060C0037
:10458000FE0000000000CECE000AFF00000B0B165C
:104590000C00FF1100110011001100110011002A80
:1045A000802A8044408840102000060C00FE000055
:1045B000000000AEAE000AFF00000B0B160C00FF5F
:1045C0000400FFE011001F000000FFE080201F003A
:1045D00011002120C0E000060C00FE0000000000D9
:1045E0008E8E000AFF00000B0B160C00FF7FC0042C
:1045F0000004000400FFE0040004000400040004C0
:10460000001C0000060C00FE000000000086860072
:104610000AFF0000090B160C01FFFF8001000200D9
:104620000C0008000800080008000800280010001E
:1046300000060C00FE0000000000CBCB000AFF00CB
:10464000000B0B160C00FF080004007FC000800167
:10465000000200040008003000480087E000060C5B
:1046600000FE0000000000BBBB000AFF00000B0BB7
:10467000160C00FF08000400FFE004000400040022
:104680007FC0040004000400FFE000060C00FE00F0
:1046900000000000ADAD000AFF0000090B160C0180
:1046A000FF08000800FF80888088808880FF80885D
:1046B0008008000800080000060C00FE0000000052
:1046C00000AAAA000AFF00000A0B160C01FF08004E
:1046D000080014002200490088C0080008000800F3
:1046E0000800080000060C00FE00000000009D9D70
:1046F000000AFF00000B0B160C00FF21002100290F
:10470000404A40F780108021004200F7C00000FFBF
:10471000E000060C00FE0000000000898B000AFF8C
:1047200000000B0A140C00FF7FC000000000000016
:104730003F800000000000000000FFE00B0B160CA3
:1047400000FF040004000400040007C0040004008B
:10475000040004000400FFE00B0A140C00FFFFE05B
:104760000400040006000500048004800400040026
:10477000040000060C00FE0000000000808000061F
:104780000000000B02040C00040040FFE000060CD7
:1047900000FE0000000000BFBF000500000005058E
:1047A0000506000008182848F800060C00FE000066
:1047B0000000009D9D0007000000050303060004A3
:1047C000D84890E69AABE5819CE68993E58DB000E8
:1047D00040009D9D1A00A9474500BFBF1C008D47A2
:1047E0009C0080801B0072479C00898B61001147F0
:1047F0009C009D9D2D00E4469C00AAAA2D00B74672
:104800009C00ADAD2D008A469C00BBBB2D005D46D3
:104810009C00CBCB2D0030469D0086862D000346A4
:104820009D008E8E2D00D6459D00AEAE2D00A94573
:104830009D00CECE2D007C459D00E4E42D004F452B
:104840009D00FDFD2D0022459E0091912D00F54417
:104850009E00CDCE4900AC449E00DCDC2D007F44A0
:104860009F009B9B2D0052449F00DDDD2D002544C1
:104870009F00E1E12D00F843A000BCBC2D00CB431C
:10488000A000CFCF2D009E43A000DCDC2D007143A3
:10489000A100A8A82D004443A200C5C52D001743C0
:1048A000A200C8C82D00EA42A200E5E52D00BD42E5
:1048B000A200E8E82D009042A200F1F12D00634231
:1048C000A200F3F32D003642A200F7F72D000942B3
:1048D000A300B7B72D00DC41A300C6C62D00AF4131
:1048E000A300C9C92D008241A300FAFB4900394148
:1048F000A40086862D000C41A4009B9B2D00DF4068
:10490000A4009D9D2D00B240A400B0B02D008540B4
:10491000A400B6B749003C40A5009B9B2D000F406A
:10492000A500A0A02D00E23FA500A8A82D00B53F3E
:10493000A60096962D00883FA600CACA2D005B3FB0
:10494000A600CFCF2D002E3FA600D5D52D00013FCC
:10495000A600E1E12D00D43EA600F0F02D00A73E18
:10496000A600F8F82D007A3EA7009F9F2D004D3E2F
:10497000A700CCCC2B00223EA700D6D62D00F53DBB
:10498000A700D8D82D00C83DA700F0F02D009B3D12
:10499000A80088882D006E3DA8008E8E2D00413D18
:1049A000A800AFAF2D00143DA800FDFD2D00E73C91
:1049B000A9008C8C2D00BA3CAB00B7B72D008D3C04
:1049C000AC00B4B42D00603CAC00F4F42D00333CDA
:1049D000AD00DEDE2D00063CAD00E0E02D00D93B51
:1049E000AD00FEFE2D00AC3BAE00A8A82D007F3B25
:1049F000AE00D7D72D00523BAF008B8B2D00253B4F
:104A0000AF00ABAB2D00F83AB000EBEB2D00CB3A8A
:104A1000B100F3F32D009E3AB20087872D00713A62
:104A2000B2008D8D2D00443AB20096962D00173AB3
:104A3000B2009A9A2D00EA39B200A7A72D00BD391D
:104A4000B200A9AA49007439B200B1B12D004739AA
:104A5000B300CBCB2D001A39B600D0D02D00ED38E5
:104A6000B600D8D82D00C038B70089892D009338FA
:104A7000B7008C8C2D006638B7009A9A2D00393813
:104A8000B700A2A22D000C38B700B9B92D00DF374E
:104A9000B700F9F92D00B237B8008F8F2D00853798
:104AA000B800B1B12D005837B800CFCF2D002B374B
:104AB000BB00E5E529000237BB00F2F22B00D73638
:104AC000BC00F3F32D00AA36BC00F6F62D007D36AF
:104AD000BD008A8A2D005036BD0094942D002336E7
:104AE000BD009F9F2D00F635BD00A6A62D00C9353F
:104AF000BE0080802D009C35BE00D2D22D006F35C7
:104B0000BF00848549002635BF00AEAE2D00F934C4
:104B1000BF00C3C32D00CC34C000A7A72D009F3415
:104B2000C000BBBB2D007234C000E2E22D00453452
:104B3000C000EFEF2D001834C40090902D00EB332F
:104B4000C400B7B72D00BE33C400C0C02D009133E0
:104B5000C400C7C72D006433C400CBCB2D0037334E
:104B6000C400D3D32D000A33C400E7E72D00DD32A3
:104B7000C400F9F92D00B032C50096962D0083329D
:104B8000C500BDBD2D005632C500D4D42D0029323C
:104B9000C500E9E92D00FC31C60089892D00CF311F
:104BA000C600A1A12D00A231C600A4A42D0075311C
:104BB000C600E2E22D004831C70089892D001B3173
:104BC000C700A2A22D00EE30C700A7A72D00C1305C
:104BD000C700D2D22D009430CA00B6B62D0067307F
:104BE000CA00BEBE2D003A30CA00F0F02D000D30D4
:104BF000CA00F4F42D00E02FCB0099992D00B32FBB
:104C0000CB009C9C2D00862FCB00B0B02D00592FDF
:104C1000CB00E0E02D002C2FCB00F6F62D00FF2E70
:104C2000CC008E8E2D00D22ECD0082822D00A52E9E
:104C3000CD00ABAB2D00782ECD00F4F42D004B2E23
:104C4000CE0080802D001E2ECE0089892D00F12DF2
:104C5000CE00BABA2D00C42DCE00C0C02D00972DB5
:104C6000CE00E1E12D006A2DCE00E5E52D003D2DC1
:104C7000CE00FFFF2D00102DCF00F1F12D00E32C11
:104C8000D000A1A12D00B62CD000BCBC2D00892CD9
:104C9000D100C0C02D005C2CD300FDFD2D002F2CB9
:104CA000D400D9D92D00022CD600E2E22D00D52B5C
:104CB000D600E5E52D00A82BD700D4D42D007B2B02
:104CC000D900A1A12D004E2BD900E2E22D00212B0D
:104CD000DA00BBBB2D00F42ADA00CBCB2D00C72AAB
:104CE000DB0088882D009A2ADB00E1E12D006D2A87
:104CF000DC0085852D00402ADC00A9A92D00132A9F
:104D0000DD0090902D00E629DF00C0C02D00B929FC
:104D1000E000EFEF2D008C29E100B9B92D005F29EB
:104D2000E100EDED2D003229E400C7C72D00052973
:104D3000E400F9F92D00D828E70087872D00AB287B
:104D4000EA00A8A82D007E28EA00B5B52D0051285C
:104D5000EC00FDFD22002F28ED0084842D000228A8
:104D6000ED00F4F42D00D527EE0081812D00A82759
:104D7000EE00A0A02D007B27F300EFEF2D004E27C3
:104D8000F300FBFB2D002127F500EFEF2D00F426AB
:104D9000F600C9C92D00C726F700A1A12D009A264B
:104DA000F800FBFB2D006D26FA00ABAB2D00402672
:104DB000FD00A2A22D001326FD00BFBF2D00E62599
:104DC000FD00C6C62D00B925FD00C8C82D008C25E4
:104DD000FD00DFDF2D005F25FD00E7E72D00322518
:104DE000FD00EAEA2D000525FD00EDED2D00D8249B
:104DF000FD00FFFF2D00AB24FE0096962D007E24C3
:104E0000FE00BABA2D005124FE00D1D12D00242479
:104E1000FE00EEEE2D00F723FE00F2F22D00CA2375
:104E20000001EAEA2D009D230301EAEA22007B2328
:104E30000701DCDC2D004E230901DDDD2D002123DF
:104E40001001CCCC2D00F4221101ABAB2D00C722F8
:104E50001101C5C52D009A221301D2D22D006D2259
:104E60001701A1A12D0040221701AEAE2D00132283
:104E70001701BEBE2D00E6211701D5D52D00B921A1
:104E80001701EFEF2D008C211701F7F72D005F219F
:104E9000180183832D0032211A01A5A52D000521BB
:104EA0001E01F4F42D00D8201E01FDFD2D00AB20C5
:104EB0001F0191912D007E201F0193932D00512001
:104EC0001F01B9B92D0024201F01D0D14900DB1FDB
:104ED0001F01D4D42D00AE1F1F01D8D82D00811F73
:104EE0001F01DBDB2D00541F200180802D00271FB8
:104EF000200189892D00FA1E20019F9F2D00CD1EC3
:104F00002101E8E82D00A01E2301CACA2D00731E4E
:104F10002301CDCD2D00461E2301CFCF2D00191E1C
:104F2000290188882D00EC1D2901AEAE2D00BF1D82
:104F30002A0199992D00921D2A01AEAE2D00651D02
:104F40002A01FFFF2D00381D2B01EDED2D000B1D5B
:104F50002B01F4F42D00DE1C2C01CDCD2D00B11C55
:104F60002C01E4E42D00841C2E01D2D22D00571C0C
:104F70002E01DEDE2D002A1C3001F9F92D00FD1B6B
:104F8000310184842D00D01B31019D9D2D00A31B78
:104F90003101CECE2D00761B3201F1F12D00491BDF
:104FA0003401F1F12D001C1B3501D8D82D00EF1A6A
:104FB0003D01C4C42D00C21AFE019A9A1E00A41A13
:104FC000E5AD98E582A8E58DA1E8A2ABE68B94E576
:104FD00087BA00E5AD98E582A8E58DA1E5B7B2E610
:104FE0008F92E585A5004D756C626F74E5B7B2E5EB
:104FF000B0B1E7BBAA2E005072696E74696E672E5D
:105000002E2E00E5B7B2E58F96E6B688E68993E5E1
:105010008DB0004D323500E69A82E5819CE6899399
:10502000E58DB00043616E6E6F74206F70656E2009
:105030007375626469722000534420636172642056
:105040006F6B0A006F70656E526F6F7420666169D6
:105050006C65640A00766F6C756D652E696E697497
:10506000206661696C65640A00534420696E697446
:10507000206661696C0A004D3234004D32332025C0
:10508000730057726974696E6720746F2066696C6B
:10509000653A20002E0A006F70656E206661696CAB
:1050A00065642C2046696C653A20002E0A006F70FA
:1050B000656E206661696C65642C2046696C653A92
:1050C000200046696C652073656C65637465640ACD
:1050D000002053697A653A200046696C65206F703C
:1050E000656E65643A2000667265736800646F6976
:1050F0006E67002066696C653A20004E6F7720006D
:10510000454E4420535542524F5554494E450A008E
:105110002220706F73002220706172656E743A22D3
:1051200000535542524F5554494E452043414C4C33
:10513000207461726765743A2200747279696E67CF
:1051400020746F2063616C6C207375622D67636FD0
:1051500064652066696C6573207769746820746F74
:105160006F206D616E79206C6576656C732E204DB5
:105170004158206C6576656C2069733A310A002EBF
:105180000A0044656C6574696F6E206661696C65C0
:10519000642C2046696C653A200046696C65206481
:1051A000656C657465643A0023646566696E6520A4
:1051B00044454641554C545F004B6420004B6920E8
:1051C000004B702000504944204175746F74756E17
:1051D000652066696E697368656421205075742066
:1051E000746865206C617374204B702C204B6920AF
:1051F000616E64204B6420636F6E7374616E7473B0
:105200002066726F6D2062656C6F7720696E746FB7
:1052100020436F6E66696775726174696F6E2E6880
:105220000A00504944204175746F74756E6520669C
:1052300061696C6564212074696D656F75740A001D
:10524000546865726D616C2052756E61776179008A
:1052500048656174696E67206661696C65640050B9
:105260004944204175746F74756E65206661696C80
:105270006564212054656D70657261747572652076
:10528000746F6F20686967680A00204B643A2000D9
:10529000204B693A2000204B703A20000A20436CD2
:1052A000617373696320504944200A002054753AA1
:1052B0002000204B753A2000206D61783A200020B4
:1052C0006D696E3A200020643A20002062696173A3
:1052D0003A2000504944204175746F74756E652002
:1052E00073746172740A00504944204175746F747C
:1052F000756E65206661696C6564212054656D700A
:105300006572617475726520746F6F206869676873
:105310000A00504944204175746F74756E652066AB
:1053200061696C65642120426164206578747275DE
:10533000646572206E756D6265720A004572723A1C
:10534000207574663820666F6E74206E6F742069E5
:105350006E697469616C697A65642E004572723A8F
:10536000207574663820666F6E74206E6F742069C5
:105370006E697469616C697A65642E004572723A6F
:10538000207574663820666F6E74206E6F742069A5
:105390006E697469616C697A65642E00000C0D0099
:1053A000FE07022603BC01FFFE0AFE08FE050808F0
:1053B00006000040F0C888889878100508080600A4
:1053C00000C0F88888888888F8050505060001204F
:1053D00030F830200508080600002070F820202052
:1053E00020E00509090600FF2070A8A8B888887089
:1053F00020050606060001E08CEA8C8A0A050909E8
:105400000600FFF8A88888888888A8F8050A0A0690
:1054100000FE205050505088A8A88870030303064F
:10542000000340A040FFFFFFFFFFFFFFFFFFFFFF64
:10543000FFFFFFFFFFFFFFFFFFFFFF00000006056C
:10544000FF01070706020080808080800080030340
:1054500003060105A0A0A005060606000050F850AE
:1054600050F8500509090600FF2070A8A07028A870
:105470007020050707060000C8C81020409898054E
:10548000070706000040A0A040A89068010303069B
:1054900002058080800309090601FF2040408080CA
:1054A000804040200309090601FF80404020202061
:1054B00040408005070706000020A8702070A82043
:1054C0000505050600012020F8202002030306013F
:1054D000FFC04080050101060003F8020202060138
:1054E00000C0C005070706000008101020404080DB
:1054F000050707060000708898A8C888700307078A
:1055000006010040C040404040E00507070600009B
:10551000708808102040F8050707060000F80810FA
:105520003008887005070706000010305090F8100A
:1055300010050707060000F880F0080888700507C6
:1055400007060000304080F08888700507070600D5
:1055500000F80810102020200507070600007088BA
:1055600088708888700507070600007088887808AA
:105570001060020505060100C0C000C0C00206069A
:105580000601FFC0C000C0408003050506010120E0
:1055900040804020050303060002F800F8030505DB
:1055A0000601018040204080050707060000708842
:1055B00010202000200507070600007088B8A8B852
:1055C0008070050707060000708888F888888805BD
:1055D0000707060000F04848704848F0050707062E
:1055E000000070888080808870050707060000F042
:1055F0004848484848F0050707060000F88080F052
:105600008080F8050707060000F88080F080808021
:1056100005070706000070888080988870050707D6
:10562000060000888888F888888803070706010034
:10563000E04040404040E0050707060000381010F9
:10564000101090600507070600008890A0C0A09089
:1056500088050707060000808080808080F80507A5
:105660000706000088D8A8888888880507070600EC
:10567000008888C8A89888880507070600007088F1
:105680008888888870050707060000F08888F08001
:10569000808005070706000070888888A890680544
:1056A0000707060000F08888F0A090880507070625
:1056B000000070888070088870050707060000F8F1
:1056C00020202020202005070706000088888888E1
:1056D0008888700507070600008888888850502051
:1056E00005070706000088888888A8A850050707CE
:1056F00006000088885020508888050707060000AB
:1057000088885020202020050707060000F8081090
:10571000204080F80309090601FFE0808080808036
:105720008080E00507070600008040402010100838
:105730000309090601FFE020202020202020E005A9
:1057400003030600052050880501010600FEF8034A
:1057500003030601058040200505050600007008CA
:105760007888780507070600008080F0888888F030
:105770000505050600007080808870050707060093
:105780000008087888888878050505060000708874
:10579000F08070050707060000304840E0404040B8
:1057A0000507070600FE70888888780870050707D7
:1057B0000600008080F088888888030707060100BB
:1057C0004000C0404040E00409090601FE100030DE
:1057D0001010101090600507070600008080889068
:1057E000E09088030707060100C04040404040E0C9
:1057F000050505060000D0A8A8A8A805050506000F
:1058000000B0C8888888050505060000708888886B
:10581000700507070600FEF0888888F0808005077D
:10582000070600FE788888887808080505050600C0
:1058300000B0C880808005050506000078807008EB
:10584000F00507070600002020F820202018050595
:105850000506000088888898680505050600008808
:10586000888850200505050600008888A8A85005EE
:10587000050506000088502050880507070600FE31
:1058800088888850204080050505060000F8102013
:1058900040F80309090601FF204040408040404095
:1058A000200109090602FF8080808080808080803E
:1058B0000309090601FF8040404020404040800528
:1058C000030306000248A890FFFFFFFFFFFFFFFF52
:1058D000FFFFFFFFFFFFFFFFFFFFFFFFFFFFFFFFD8
:1058E000FFFFFFFFFFFFFFFFFF0000000605FF01B6
:1058F0000707060200800080808080800507070679
:1059000000FF2070A8A0A87020050707060000303F
:105910004840E04048B0050505060000A850885002
:10592000A80507070600008850F820F82020010786
:10593000070602008080800080808004080806013D
:105940000070806090906010E0030101060107A0E4
:105950000607070600007884B4A4B484780305051C
:1059600006010460A06000E005050506000028505F
:10597000A05028050303060001F8080803010106EA
:105980000103E00607070600007884B4A4A4847825
:10599000050101060007F804040406010560909063
:1059A000600507070600002020F8202000F8030506
:1059B0000506010440A02040E0030505060104C0DF
:1059C000204020C00303030601052040800507078F
:1059D0000600FE88888898E8808005080806000090
:1059E00078E8E8E868282828020202060203C0C016
:1059F0000302020601FE20C003050506010440C0A3
:105A00004040E003050506010540A04000E0050513
:105A100005060000A0502850A0050A0A0600004014
:105A2000C048506050B0507810050A0A0600004087
:105A3000C048506050A8081038050A0A060000C087
:105A4000204830E050B050781005070706000020CD
:105A5000002020408870050A0A06000040200070DF
:105A60008888F8888888050A0A06000010200070D7
:105A70008888F8888888050A0A0600002050007087
:105A80008888F8888888050A0A06000068B00070CF
:105A90008888F88888880509090600005000708801
:105AA00088F8888888050A0A060000205020708837
:105AB00088F888888805070706000078A0A0F0A06D
:105AC000A0B80509090600FE7088808080887010E3
:105AD00060050A0A060000402000F88080F08080FF
