:100000000C94CB1E0C9445E00C941AE00C94EFDF9A
:100010000C94C4DF0C9499DF0C946EDF0C9443DFD6
:100020000C9418DF0C94FC1E0C94FC1E0C94FC1E0B
:100030000C94FC1E0C94FC1E0C94FC1E0C94FC1ED8
:100040000C94FC1E0C9467770C94FC1E0C94FC1E04
:100050000C94FC1E0C94FC1E0C9453930C94CEDE5A
:100060000C94FC1E0C945F420C94FC1E0C94FC1E21
:100070000C94FC1E0C94FC1E0C94FC1E0C94FC1E98
:100080000C94FC1E0C94FC1E0C94FC1E0C94FC1E88
:100090000C94FC1E0C94FC1E0C94FC1E0C94FC1E78
:1000A0000C94FC1E0C94FC1E0C94FC1E0C94FC1E68
:1000B0000C94FC1E0C94FC1E0C94FC1E0C94FC1E58
:1000C0000C94FC1E0C94FC1E0C94FC1E0C94FC1E48
:1000D0000C94FC1E0C94FC1E0C94FC1E0C94FC1E38
:1000E0000C94FC1E4BDD4EDD3DDD41DD47DD85DD45
:1000F00052DD56DD5CDD60DD64DD6ADD6EDD72DD06
:1001000085DD78DD7CDD80DDEADDEFDDF4DDFEDD43
:1001100008DE81DE12DE1ADE22DE2CDE36DE40DE76
:100120004FDE59DE81DE63DE6DDE77DE9AEBE9E9D4
:1001300022EAD6EB22EA22EA22EA22EA22EA22EAAA
:1001400022EA22EA22EA22EA22EA22EA22EA22EA4F
:1001500022EA22EA22EA22EA22EA22EA22EA22EA3F
:1001600022EA22EA22EA22EAD0EB22EA22EA22EA80
:1001700022EA22EA22EA22EA22EAA9EB22EA22EA97
:1001800022EA22EA22EA22EA22EA22EA22EA22EA0F
:10019000EDEB1FEA084AD73B3BCE016E84BCBFFDA6
:1001A000C12F3D6C74319ABD56833DDA3D00C77F47
:1001B00011BED9E4BB4C3E916BAAAABE00000080E0
:1001C0003F05A84CCDB2D44EB93836A9020C50B96F
:1001D000918688083CA6AAAA2ABE000000803F009B
:1001E0004E414E494E495459494E46CDCCCC3D0A1C
:1001F000D7233C17B7D13877CC2B329595E6241FFF
:10020000B14F0A000020410000C84200401C4620B7
:10021000BCBE4CCA1B0E5AAEC59D74434F4D4D55C6
:100220004E49434154494F4E0044525952554E0095
:100230004552524F525300494E464F004543484F96
:100240000047322F47332062616420706172616D14
:1002500065746572730A00536C6565702E2E2E00EE
:1002600059206F7574206F662072616E6765202853
:10027000312D33292E0A0058206F7574206F6620A7
:1002800072616E67652028312D33292E0A004D6575
:1002900073682070726F62696E6720646F6E652E7E
:1002A0000A005374617274206D6573682070726FF8
:1002B00062696E672077697468202247323920535B
:1002C00031222066697273742E0A004732380A4759
:1002D00032392053320053746174653A20004D6501
:1002E000736820626564206C6576656C696E672052
:1002F000686173206E6F20646174612E0A00532060
:100300006F7574206F662072616E67652028302DCE
:1003100035292E0A004D65736820706F696E742050
:1003200063616E6E6F74206265207265736F6C76A8
:1003300065640A00A4A5A6A700526573756D696E71
:1003400067207072696E74005761697420666F72FD
:1003500020757365722E2E2E004E6F206D6F7665A0
:100360002E00456E642066696C65206C6973740AA2
:1003700000426567696E2066696C65206C697374FC
:100380000A004D313235005344207072696E746931
:100390006E67206279746520004E6F74205344208C
:1003A0007072696E74696E670A0025697300256949
:1003B0006D20256973002569682025696D202569F0
:1003C0007300256964202569682025696D202569E9
:1003D00073002569792025696420256968202569CD
:1003E0006D20256973005072696E742074696D65A3
:1003F0003A200050726F7465637465642050696EB2
:100400000A004E6F7A7A6C6520257300A4A5A6A712
:10041000003C023702300229021B026F666600446C
:10042000454255473A004B494C4C45442E20004D1F
:100430003131332053006F6B00344D617820B5208B
:100440002E002F2F20007A5F6D696E3A2000795FB1
:100450006D696E3A2000785F6D696E3A20005265D2
:10046000706F7274696E6720656E6473746F70204C
:100470007374617475730A004D31343520533C69CF
:100480006E6465783E206F7574206F662072616EB1
:1004900067652028302D31290A0053657474696E10
:1004A000672054726176656C20416363656C657288
:1004B0006174696F6E3A200053657474696E6720C9
:1004C0005265747261637420416363656C65726127
:1004D00074696F6E3A200053657474696E672050BA
:1004E00072696E7420416363656C65726174696FD3
:1004F0006E3A200053657474696E67205072696E9D
:100500007420616E642054726176656C204163636F
:10051000656C65726174696F6E3A20000001363750
:100520002603FF3C3D380EFF2E303E12FFFF0C0825
:1005300009FFFF071A1C18FFFF08440AFF43FFFFCB
:10054000FFFFFFFF43290A0061626C656420286D8C
:10055000696E2074656D702000436F6C642065784F
:100560007472756465732061726520004E6F20633C
:10057000617365206C696768740A00416374697609
:10058000652045787472756465723A2000556E6B0B
:100590006E6F776E20636F6D6D616E643A2022001E
:1005A0004B494C4C45442E200053544F5050454429
:1005B0002E20005072696E7465722073746F7070B3
:1005C00065642064756520746F206572726F727344
:1005D0002E2046697820746865206572726F7220DB
:1005E000616E6420757365204D39393920746F2030
:1005F000726573746172742E202854656D70657213
:1006000061747572652069732072657365742E203C
:100610005365742069742061667465722072657315
:1006200074617274696E67290A004E6F204C696E9E
:1006300065204E756D626572207769746820636805
:1006400065636B73756D2C204C617374204C696EFF
:10065000653A20004E6F20436865636B73756D20AB
:1006600077697468206C696E65206E756D6265725D
:100670002C204C617374204C696E653A20006368CD
:1006800065636B73756D206D69736D617463682C40
:10069000204C617374204C696E653A20004C696E81
:1006A00065204E756D626572206973206E6F7420CF
:1006B0004C617374204C696E65204E756D62657275
:1006C0002B312C204C617374204C696E653A2000EC
:1006D0004D313130004D3331004D383420582059E0
:1006E000205A20450053442072656164206572726F
:1006F0006F720A00446F6E65207072696E74696E65
:10070000672066696C650A0020496E76616C6964D1
:100710002065787472756465722000000020C10045
:100720000020C1000000000000024300002A430036
:10073000000243001211FEFC00000000000A11003C
:100740000AFF00000B0B160C01FF9060D780BA0067
:100750009200FFE0B240BA40D6409240FC400440D4
:100760000B0B160C01FF0800FFC088408840FFC03B
:1007700088408840FFC0882008200FC00C0B160C52
:1007800000FF20804FE09080EFF042904DA0F2807B
:100790000FF031C0C2200C100C0B160C00FF200013
:1007A00027F0F840204020403840E04020402040E2
:1007B0002040E3C00C0B160C00FF67E014200C2057
:1007C000F83020002FE024202240218046C018303D
:1007D0000C0B160C00FF06007FE0402000007FF0AD
:1007E0000200120013E032005A0087F000060900F0
:1007F000FE000000000001090008FE0000050808D6
:1008000006000040F0C8888898781005080806009F
:1008100000C0F88888888888F8050505060001204A
:1008200030F830200508080600002070F82020204D
:1008300020E00509090600FF2070A8A8B888887084
:10084000200509090600FFE080C0B0A8283028284C
:100850000509090600FFF8A88888888888A8F8058F
:100860000A0A0600FE205050505088A8A88870033D
:10087000030306000340A0400000000000000071D8
:10088000200000000000000000000000000080FCCC
:10089000030000000000000000000000000040FF16
:1008A0006F06000000000000000000000000B8FF1C
:1008B0005F06000000000000000000000000C8FD0E
:1008C0001F00000000000000000000000000C8FE43
:1008D0003F0900000000000000000000000064FE6E
:1008E000BF0900000000000000000000000060FCE4
:1008F0003F0900000000000000000000000000FCB4
:100900007F0000000000000000000000000020F850
:100910007F0000000000000000000000000020F840
:100920007D0000000000000000000000000050F802
:10093000BF0800000000000000000000000050E0C0
:10094000BF08000000000000000000000000C0C060
:100950003F00000000000000000000000000908048
:100960001F0000000000000000400000006080E167
:100970001F0000001202000000A0B10C006080E126
:100980000F0200C0881E000000108204000000C199
:100990000F0000803100000000A03C03040000E2D2
:1009A000070000016B0100000010FE24004018E069
:1009B00007180000F30700000020FF02000000C03D
:1009C00003180000FB2F000000B0FD0D000000F038
:1009D0000F000098DB1F00000010FE1BE01F04F852
:1009E000CF000098ED1E00000000FC03000000F89E
:1009F0000F000038E01F00000000FC03FFFFFFFFB6
:100A0000FFFFFF67C01F00000000F883FFFFFFFF2C
:100A1000FFFFFF87811F00000000E181FFFFFFFF54
:100A2000FFFFFF87052F000000208013FFFFFFFF5F
:100A3000FFFFFF078E160000002000B7FFFFFFFF3B
:100A4000FFFFFF077E1B000000004086FFFFFFFF47
:100A5000FFFFFF077F000000000000CEFFFFFFFF49
:100A6000FFFFFFB77F000000000000FCFFFFFFFF5B
:100A7000FFFFFFC73F010000001060B8FFFFFFFF4E
:100A8000FFFFFFE73F00000000001090FFFFFFFFA7
:100A9000FFFFFFE71F00000000000080FFFFFFFFD7
:100AA000BFFFFFF71F000000000000009FFFFFFFD7
:100AB000BFFFFFFF1F000000000080818FFFFFFFCE
:100AC0009FFFFFFF2F000000000000C387FFFFFF14
:100AD0008FFFFFFF07000000000022C687FFFFFF17
:100AE00087FFFFFF030000000080808C87FFFFFF6F
:100AF00087FFFFFF1B0000000000908C87FFFFFFB7
:100B000087FFFFFF190000000000408407FFFFFF80
:100B100007FFFFFFA70000000000408207FEFFFF65
:100B200007FEFFFF130000000000A0800FFCFFFF86
:100B300007F8FFFF33000000000080800FC0FFFFB8
:100B40000FE0FFFF070C0000000040811FF0FFFFD7
:100B50003FF0FFDF070C000000000083FFFCFFFFF9
:100B6000FFFFFFFF0704000000000082FFFFFFFF00
:100B7000FFFFFFFF0704000000000086FF0F0000DA
:100B800000C0FFFF0700000000000084FF0F00000E
:100B900000C0FFFF030000000000008CFFFFFFFF0C
:100BA000FFC7FFFF1B00000000001018FFFFFFFD44
:100BB000EFC7FFFF01000000000000B0FFFFFDF8DD
:100BC00083C7FF7F00000000000000C0FFCF78F067
:100BD00003C7FF3F0000000000000080FFCF70F15E
:100BE00007C4FF073000000000000003FFFFF3E32D
:100BF0002FC0FF071200000000000080FFFFFFE78A
:100C00007FC0FF3700000000000000C0FFFFFFFFB3
:100C1000FFC0FF3700000000000000E0FFFFFFFF03
:100C2000FFC1FF070000000000000080FFFFFFFF82
:100C3000FFC1FF0700000000000000C0FFFFFFFF32
:100C4000FFFFFF0700000000000000C0FFFFFFFFE4
:100C5000FFFFFF0700000000000000C0FFFFFFFFD4
:100C6000FFFFFF070000000000000080FFFFFFFF04
:100C7000FFFFFF170000000025753A253032750090
:100C8000253032753A2530327500257564202530BF
:100C900032753A25303275005A0059005800092043
:100CA000000000000000000000000000007FFFE0E6
:100CB0000000000000000000000000007000E000E4
:100CC000000000000000000000000061F86000006B
:100CD0000000000000000000000041F820000000BB
:100CE00000000000000000000040F02000000000B4
:100CF0000000000000000000406020000000000034
:100D0000000000000000005801A07F8000000000EB
:100D10000000000000005C63A0FFC00000000000B5
:100D200000000000005EF7A0FFC00000000000000F
:100D3000000000005EF7A0FFC000000000000000FF
:100D40000000005C63A07F80000000000000000045
:100D500000005801A07F800000000000000000009B
:100D600000406020FFC00000000000000000000004
:100D700040F020FFC0000000000000000000004123
:100D8000F820FFC00000000000000000000061F833
:100D9000603F00000000000000000000007000E064
:100DA0001E00000000000000000000007FFFE00CBB
:100DB0000000000000000000000000000000000033
:100DC000000000000000000000007FFFE0000000C5
:100DD0000000000000000000007000E000000000C3
:100DE0000000000000000000630C60000000000034
:100DF00000000000000000470E200000000000007E
:100E00000000000000004F0F200000000000000064
:100E100000000000005F0FA00000000000000000C4
:100E2000000000005E07A07F8000000000000000BE
:100E3000000000406020FFC0000000000000000033
:100E4000000040F020FFC000000000000000000093
:100E50000040F020FFC00000000000000000000083
:100E60004060207F80000000000000000000005E65
:100E700007A07F80000000000000000000005F0F5E
:100E8000A0FFC0000000000000000000004F0F2085
:100E9000FFC000000000000000000000470E20FF1F
:100EA000C000000000000000000000630C603F0074
:100EB000000000000000000000007000E01E0000C4
:100EC0000000000000000000007FFFE00C000000B8
:100ED0000000000000000000000000C3C4204142E8
:100EE0005320BEBF00C3C420504C4120BEBF0050A1
:100EF00049442D44005049442D44005049442D4953
:100F0000005049442D49005049442D500050494457
:100F10002D50000820DDDE000820DDDE000820DA8C
:100F2000DC000820DADC000820DADC000820DADB4C
:100F3000000820DADB000820DADB00B52000B3204F
:100F400000B1B2D8C900D5D6D1D200D5D6D1D20001
:100F5000D5D6D1D200D3D400D3D400D3D400D8D99D
:100F60000053746F7265206D656D6F727900D3D414
:100F700000D3D400D3D400D5D6D1D200D5D6D1D287
:100F800000D5D6D1D200C9D2005654726176206DF8
:100F9000696E005654726176206D696E0056547207
:100FA0006176206D696E00566D696E00566D696ED2
:100FB00000566D696E00566D6178204500566D6172
:100FC00078204500566D6178204500566D61782087
:100FD0005A00566D6178205A00566D6178205A008B
:100FE000566D6178205900566D6178205900566D14
:100FF0006178205900566D6178205800566D6178EF
:10100000205800566D6178205800DFB200416D61B4
:1010100078204500416D6178204500416D61782060
:101020005A00416D6178205A00416D617820590065
:10103000416D6178205900416D6178205800416D03
:101040006178205800412D74726176656C00412DE5
:1010500074726176656C00412D726574726163749F
:1010600000412D7265747261637400416363656C45
:1010700000416363656C00DFB2005344206361721A
:1010800064206F6B0A006F70656E526F6F7420661C
:1010900061696C65640A00766F6C756D652E696EAA
:1010A0006974206661696C65640A004572726F72CA
:1010B0003A00534420696E6974206661696C0A00C5
:1010C0006175746F25692E67004D3234004D3233DF
:1010D000202573004572726F722077726974696E91
:1010E0006720746F20454550524F4D210A006563BB
:1010F000686F3A00A8A9ACAD00A8A9AAAB00000C83
:101100000B00FE070192032120FFFF0AFF07FF00EB
:10111000000006000A010707060200808080808028
:101120000080030202060105A0A0050707060000D3
:101130005050F850F850500507070600002078A0DE
:101140007028F020050707060000C0C8102040984E
:10115000180507070600006090A040A890680203E9
:1011600003060104C04080030707060100204080F9
:101170008080402003070706010080402020204097
:101180008005050506000120A870A82005050506B4
:1011900000012020F820200203030602FFC0408047
:1011A000050101060003F8020202060200C0C005A4
:1011B000050506000108102040800507070600000D
:1011C000708898A8C8887003070706010040C040CF
:1011D000404040E0050707060000708808708080E6
:1011E000F8050707060000F81020100808F00507AA
:1011F0000706000010305090F81010050707060091
:1012000000F880F008088870050707060000708065
:1012100080F0888870050707060000F80810202075
:1012200020200507070600007088887088887005F0
:101230000707060000708888780808700205050610
:101240000200C0C000C0C00206060602FFC0C00007
:10125000C040800407070600001020408040201096
:10126000050303060002F800F804070706000080E3
:1012700040201020408005070706000070880810F5
:1012800020002005070706000070880868A8A870DD
:10129000050707060000708888F888888805070712
:1012A000060000F08888F08888F00507070600002F
:1012B00070888080808870050707060000F08888A5
:1012C000888888F0050707060000F88080F0808095
:1012D000F8050707060000F88080F0808080050789
:1012E00007060000708880B8888870050707060028
:1012F00000888888F88888880107070602008080AF
:1013000080808080800507070600003810101010CC
:1013100090600507070600008890A0C0A09088058F
:101320000707060000808080808080F80507070698
:10133000000088D8A88888888805070706000088E4
:1013400088C8A898888805070706000070888888DC
:10135000888870050707060000F08888F080808084
:1013600005070706000070888888A89068050707A9
:10137000060000F08888F0A09088050707060000A6
:10138000788080700808F0050707060000F8202024
:101390002020202005070706000088888888888884
:1013A0007005070706000088888888885020050790
:1013B000070600008888888888A850050707060067
:1013C0000088885020508888050707060000888814
:1013D0008850202020050707060000F8081020404C
:1013E00080F8030707060000E08080808080E00529
:1013F00005050600018040201008030707060000CD
:10140000E02020202020E00503030600042050886F
:10141000050101060000F8020202060205804005EF
:1014200005050600007008788878050707060000A3
:101430008080B0C88888F0050505060000708080AF
:1014400088700507070600000808689888887805EE
:1014500005050600007088F8807005070706000083
:101460003048E0404040400506060600FF7088888E
:101470007808700507070600008080B0C888888853
:101480000107070602008000808080808003080832
:101490000601FF200020202020A0400407070601AD
:1014A00000808090A0C0A090030707060100C04004
:1014B00040404040E0050505060000D0A8A8A8A8C7
:1014C000050505060000B0C88888880505050600E2
:1014D0000070888888700506060600FFF08888F08E
:1014E00080800506060600FF7888887808080505CC
:1014F00005060000B0C88080800505050600007064
:10150000807008F00407070600004040E0404040BB
:1015100030050505060000888888986805050506D9
:10152000000088888850200505050600008888A8E6
:10153000A8500505050600008850205088050606BD
:101540000600FF888888780870050505060000F801
:10155000102040F80307070601002040408040406B
:1015600020010707060200808080808080800307BA
:10157000070601008040402040408005020206002E
:1015800003689000000006000A0000000C000A003A
:1015900000000C000A0000000C000A0000000C0013
:1015A0000A0000000C000A0000000C000A00000005
:1015B0000C000A0000000C000A0000000C000A00E9
:1015C00000000C000A0000000C000A0000000C00E3
:1015D0000A0000000C000A0000000C000A000000D5
:1015E0000C000A0000000C000A0000000C000A00B9
:1015F00000000C000A0000000C000A0000000C00B3
:101600000A0000000C000A0000000C000A000000A4
:101610000C000A0000000C000A0000000C000A0088
:1016200000000C000A0000000C000A0000000C0082
:101630000A0000000C000A0B0B160C00FFFFE00272
:1016400000020004000D0014802440C420040004A3
:101650000004000B0B160C00FFF9008A00ABE0AC95
:1016600040AA40AA40AA40AA80210052808C600B68
:101670000B160C00FF240024003F8044008400046B
:1016800000FFE00A0011002080C0600B0B160C0068
:10169000FF240024003FC044000400FFE0090009CB
:1016A000001120212040E00B0B160C00FF20003D14
:1016B000E0512091201120FF201120292025E04514
:1016C0002080000B0B160C00FF20807FC00840FF1D
:1016D000E0110020805F4080203F8000007FC00B31
:1016E0000B160C00FF224047E09480E4802FE0447A
:1016F00080F48007E03480C48007E00B0B160C00F8
:10170000FF04808FE0490019002FC0090009002F55
:10171000C0490089000FE00B0B160C00FF10003FC2
:101720008051000E003180C0603F8024803F8024C3
:10173000803F800B0B160C00FF2280FA4007E0FA76
:10174000808A808A80FA802280B280AAA064E00B1E
:101750000B160C00FF222047409280EFE02200474A
:10176000C0EC4007C03440C7C004400B0B160C004F
:10177000FF08000FC008000800FFE008000E000985
:10178000800840080008000A0B160C00FFFF8000CC
:1017900080008080808080FF80800080008040808A
:1017A000407FC00B0B160C00FF47C04100EFE0412B
:1017B0000045006960C9204D6049204FE0C8200BFA
:1017C0000B160C00FF0800040004000A000A000ABF
:1017D00000110011002080404080200B0B160C00EF
:1017E000FF22402200F7E0220023E03520E52025FB
:1017F000402880294072200B0A140C000044404409
:101800004044407FC004000400842084208420FFE2
:10181000E00B0B160C00FF040000007FC004000466
:101820000004007FC0040004000400FFE00B0B165E
:101830000C00FFFFE0110001C0FE004880250004FD
:1018400000FFE015002480C4600B0B160C00FF1194
:10185000007FC044407FC044407FC00400FFE004DC
:101860000004000400090B160C00FF1000FF80802C
:10187000808080FF8080808080FF8080808080FFEB
:10188000800B0B160C00FF7100010003E0F9202112
:1018900020412051208920FA20022004C00B0B1681
:1018A0000C00FF7FC01100110011001100FFE011BA
:1018B0000011002100210041000B0B160C00FF213C
:1018C000002200F44057E0502057C0944054402478
:1018D0004057C094400B0B160C00FF11000A007F0C
:1018E000C004000400FFE004000A0011002080C0D2
:1018F000600A0B160C00FF5FC0004084408440BFAC
:101900004084408C409440A4408C4081C00B0B1616
:101910000C00FF240027C024002400FFE000001476
:1019200040248047000C0070000B0B160C00FF24B5
:101930008004800FC0E48024803FE024802480283D
:101940008050008FE00B0B160C00FF08000800FF12
:101950008088808880FF8088808880FFA08820071A
:10196000E00B0B160C00FF27802480F48024807489
:10197000806C80A480248024A028A030600A0B16EC
:101980000C00FFFFC0804080409E40924092409EED
:101990004080408040FFC080400B0B160C00FF7F52
:1019A000C044005FC050405FC050405FC042004A2A
:1019B000805240A6200B0B160C00FF040007E00429
:1019C000007FC04040404040407FC00000524089FE
:1019D000200B0B160C00FF4780248004800480E855
:1019E0006020002FC024402280310026C00B0B163F
:1019F0000C00FF7FC04A407FC00400FFE004003FAE
:101A000080208024802480FFE00B0B160C00FF2236
:101A1000004FE048204FE0C8004FE04AA05AA06FB6
:101A2000E04AA048600B0B160C00FFF3C024402ACC
:101A300080F100228065E07220A540208023002CE8
:101A4000000B0B160C00FF0400FFE080200000FFDD
:101A5000E00400240027C0240054008FE00B0B1684
:101A60000C00FF73E01080510023E0FA202AA0222E
:101A7000A022A02080214062200B0B160C00FF2228
:101A800000F78022803680E2A025A0246068200034
:101A900000524089200B0B160C00FF73C04200421D
:101AA000007BE04A404A407A404A404240444088F5
:101AB000400B0B160C00FF0800FFE008001FC030B1
:101AC000405FC090401FC01040104010C00B0B166C
:101AD0000C00FF02007FE0420042005FC04200476E
:101AE000004A805240622082000B0B160C00FFF36C
:101AF000C096409180A660A10097C091009500E734
:101B0000E0810081000B0B160C00FF0F8088804FD6
:101B10008008808F8040001FC03540554095403F71
:101B2000E00B0B160C00FF27E02080F880208020BF
:101B3000803880E08020802080208061800B0B1620
:101B40000C00FF1FE0910057C0144017C09440578D
:101B5000C011005540992023000B0B160C00FF20EC
:101B60008027E0F240218022403420E240224022BF
:101B700040224064400B0B160C00FF410041004F17
:101B8000E0E920492049206FE0C92049204920CFC1
:101B9000E00B0B160C00FF2100F1004FE0A920F92B
:101BA000202FE03920E92029202FE028200B0B16D8
:101BB0000C00FF8FE049200920CBA049204FE048CE
:101BC000204BA04AA06BA050E00B0B160C00FF7F2F
:101BD000C004004440244024800400FFE0040004CA
:101BE00000040004000B0B160C00FF820042001FD3
:101BF000E0C2005FC052405FC047004A805240BF11
:101C0000E00B0B160C00FF04007FE048807FE048EB
:101C1000804F8040005FC04840478098600B0B16A3
:101C20000C00FF0100EFE0A100A440AFE0A440AF32
:101C3000E0A920E92002800C600B0B160C00FF14B9
:101C4000C0F6A0BC60A780A880BFE0A920EFE00993
:101C5000200FE009200B0B160C00FF7F8040804214
:101C600080628054804880488054A062A040608098
:101C7000200B0B160C00FF04007FE040207FE040AB
:101C8000007DE054204CA0546064A08D600B0B16C6
:101C90000C00FF82005FE0040008409FE040200A43
:101CA000800A804AA092A022600B0B160C00FF4114
:101CB000004FE0E820428044406820C7C041004116
:101CC000004100CFE00B0B160C00FF50207D20914F
:101CD00020FF2011207D205520552054205C20100D
:101CE000E00B0B160C00FF3F8020803F802080FF20
:101CF000E048007BC0494079404880FB600B0B16F0
:101D00000C00FF04000400040024802440444044EC
:101D1000208420040004001C000B0B160C00FF04A0
:101D20000004000400FFE004000A000A0011001192
:101D3000002080C060090A140A0000888049000859
:101D400000FF80008000807F8000800080FF800B8B
:101D50000B160C00FF21001200FFE0000078804A03
:101D6000807A804A807A80488059800B0B160C005C
:101D7000FF27C000000000EFE02100220024402FD8
:101D8000E0202050008FE00B0B160C00FF20802776
:101D900000F90021C077002100F9E027007120A997
:101DA0002020E00B0B160C00FF10401040FDE0104F
:101DB0004038C03540524094401040104010C00B95
:101DC0000B160C00FF0040F8400BE0084088405222
:101DD00040514021405040484089C00A0B160C0039
:101DE000FF840084408480F5008600840084009491
:101DF00000A440C44083C00B0B160C00FF11207DD3
:101E0000001100FFE02900FD4049407C8008A0FD52
:101E1000600A200B0B160C00FF17C02440244067FB
:101E2000C0A1002FE0210023802540292021000BA4
:101E30000B160C00FF0800FFE0100027C020806197
:101E400000AFE021002100210023000B0B160C0045
:101E5000FF24002FE0B400A480A4A0AAC02A8028F8
:101E6000802940324024200B0B160C00FF7FE080BD
:101E7000003FC020403FC010001FC01040288047D6
:101E80000038E00B0B160C00FF7FE04000400040E4
:101E90000040004000400040004000400080000B37
:101EA0000B160C00FFFFE004007FC044407FC044DD
:101EB000407FC0440024001800E7E00B0B160C0024
:101EC000FF11E0FD00450029E0FD4011407D40117B
:101ED000405540924034400B0B160C00FF21005F30
:101EE000E04000CFC040004FC040004FC048404FCE
:101EF000C048400B0B160C00FF04007FC040407F21
:101F0000C040407FC040407FC004405220BFA00B73
:101F10000B160C00FF7FC044407FC044407FC004CC
:101F2000001B00E0E01100110061000B0B160C001B
:101F3000FFFFE0040008007FE049204F2049204FC8
:101F400020492049207FE00B0B160C00FFFDE056D6
:101F5000407940388055409220FFE0040027C0249B
:101F600000FFE00B0B160C00FFFB8052007BE01221
:101F700040FA4014403F8020803F8020803F800B0B
:101F80000B160C00FF1FE0200027C06440A7C020F4
:101F9000002FE0282027C0210023000B0B160C0087
:101FA000FFF3E082208220FA20822082208A20B261
:101FB00020C2E0020002000B0B160C00FF2480463A
:101FC000A095C0E48027E04480F5C006A03480C41A
:101FD0008007E00B0B160C00FF27C0410087E0E0F4
:101FE0002022804580F2800FE03080C14002200B2B
:101FF0000B160C00FF02000200220023C022002268
:10200000002200220022002200FFE0090B160C0033
:10201000FF08000800FF80888088808880FF808813
:102020008088808880FF800B0B160C00FF210053F6
:10203000A04100F7E0510053C0564053C05A4053EE
:10204000C042400B0B160C00FF7FC00400040004CC
:1020500000FFE00A000A0012002220422081E00B6B
:102060000B160C00FF110021002FE06100A380235C
:1020700080254025402920210021000B0B160C0053
:10208000FFF7E09420F42097E09480F48097E094A8
:1020900080F4A0966004200B0B160C00FF7BE094EC
:1020A0008004007FC00400FFE00100FFE021001178
:1020B0000007000B0B160C00FF210047C091002FFA
:1020C000E06080AFE0208024802280208023800B8D
:1020D0000B160C00FF27C02440F7C02EE02AA03EBC
:1020E000E0E1002FE02380254069200B0B160C0057
:1020F000FF140027E02A006200A3C0220022002370
:10210000E0220022002200656E7175657565696EBA
:1021100067202200000020C1000020C10000000054
:10212000000048420000484200002041000000003A
:102130005761726E696E673A20486F6D696E6720ED
:1021400042756D702044697669736F72203C20314E
:102150000A000202040000A0400000A040000000AD
:102160004000000C430000344300000243FFFFFF27
:102170004D36303020486F74656E6420746F6F2068
:10218000636F6C6420746F206368616E676520669E
:10219000696C616D656E740A00C3C420504C4100C7
:1021A000C3C42041425300C8C9004368616E6765DB
:1021B0002066696C616D656E7400B5B6B7B8B9BA62
:1021C000004D383400CFE0C4C700BBBCBD0047326F
:1021D0003800C1B2CE00AEAFB000C1B2205800C1CD
:1021E000B2205900C1B2205A00CCADBA00C1B22011
:1021F000302E316D6D00C1B220316D6D00C1B22045
:1022000031306D6D00C1B2CE00CCADBA00C1B2208C
:102210005A00C1B2205900C1B2205800CCADBA005A
:10222000C1B2205A00C1B2205900C1B2205800A446
:10223000A5004D3530320A4D35303000526573748B
:102240006F7265206661696C73616665004C6F61D1
:1022500064206D656D6F727900496E697469616C97
:10226000697A6520454550524F4D0053746F726531
:10227000206D656D6F72790046696C616D656E7475
:1022800000DFB200C9D200AEAFB0004368616E6734
:10229000652066696C616D656E7400CCADD1D2004D
:1022A000CCADD1D200CCADD1D200D5D6D1D200D5D3
:1022B000D6D1D200D5D6D1D200D3D400D3D400D336
:1022C000D400426564205A00426564205A00D1D28D
:1022D00000D1D200D1D200AEAFB0004261636B003A
:1022E0004E65787420636F726E6572004C6576651A
:1022F0006C696E6720446F6E652100C1B2205A0080
:102300004E65787420506F696E74002569202F2007
:102310002575004D6F76696E672E2E2E00436C6911
:10232000636B20746F20426567696E00486F6D694A
:102330006E672058595A00473238004C6F6164204C
:102340006D656D6F72790053746F7265206D656D88
:102350006F7279004C6576656C20636F726E657282
:102360007300CFE0C4C700426564205A0042656430
:10237000205A0046616465204865696768740046B4
:102380006164652048656967687400B52000B32002
:1023900000CFE0C4C700BBBCBD0047323800A4A5D5
:1023A0000024F4D43050C38E20C2A24017828B7018
:1023B00011127A910D816CD90AA861E108C758669B
:1023C00007615143061E4B5D05C145A7041A411123
:1023D00004093D9803713931034036DB02653391BE
:1023E00002D4305402802E1D02632CEE01752AC5E2
:1023F00001B028A001102781018F2564012B244BF7
:1024000001E0223401AC211F018D200D01801FFC51
:1024100000841EED00971DDF00B81CD200E61BC62D
:1024200000201BBC00641AB200B219A8000A19A04F
:10243000006A189900D117910040178B00B51684D7
:102440000031167E00B31579003A157300C7146F7A
:102450000058146A00EE1366008813630025135EAB
:1024600000C7125B006C12570015125400C11151C5
:102470000070114F0021114B00D61049008D1047FC
:10248000004610440002104200C00F4000800F3E82
:1024900000420F3C00060F3B00CB0E3800930E3776
:1024A000005C0E3500270E3400F30D3200C10D31F3
:1024B00000900D3000600D2E00320D2D00050D2C0A
:1024C00000D90C2B00AE0C2900850C29005C0C27D0
:1024D00000350C27000E0C2600E80B2400C40B244A
:1024E00000A00B23007D0B23005A0B2100390B2188
:1024F00000180B2000F80A1F00D90A1E00BB0A1E94
:10250000009D0A1D00800A1D00630A1C00470A1B6B
:10251000002C0A1B00110A1A00F7091A00DD09191C
:1025200000C4091900AB091900920917007B0918AA
:1025300000630917004C0916003609160020091619
:10254000000A091500F5081500E0081400CC08146D
:1025500000B8081400A4081400900813007D0812A5
:10256000006B0813005808120046081200340811C6
:1025700000230811001208110001081100F00710D3
:1025800000E0071000D0071000C0071000B0070FD0
:1025900000A107100091070E0083070F0074070FBA
:1025A0000065070E0057070E0049070E003B070D98
:1025B000002E070E0020070D0013070D0006070D63
:1025C00000F9060C00ED060D00E0060C00D4060C28
:1025D00000C8060C00BC060C00B0060C00A4060BDC
:1025E0000099060C008D060B0082060B0077060B87
:1025F000006C060B0061060A0057060B004C060A29
:102600000042060A0038060A002E060A0024060ABE
:10261000001A060A001006090007060A00FD05094F
:1026200000F4050900EB050900E2050900D90509D8
:1026300000D0050900C7050900BE050900B5050859
:1026400000AD050800A50509009C050800940508D3
:10265000008C050800840508007C05080074050846
:10266000006C050700650508005D050700560508B4
:10267000004E05070047050700400508003805071C
:1026800000310507002A050700230507001C050681
:1026900000160507000F05070008050600020507DC
:1026A00000FB040600F5040700EE040600E804063B
:1026B00000E2040700DB040600D5040600CF040690
:1026C00000C9040600C3040600BD040600B70406E2
:1026D00000B1040500AC040600A6040600A0040531
:1026E000009B04060095040500900406008A04057A
:1026F0000085040500800406007A040500750405C1
:1027000000700405006B0405006604050061040503
:10271000005C04050057040500520405004D040543
:102720000048040500430405003E0404003A040583
:102730000035040500300404002C040500270404BF
:1027400000230405001E0404001A040400160405F6
:1027500000110404000D040400090405000404042D
:102760000000040400FC030400F8030400F4030464
:1027700000F0030400EC030400E8030400E4030495
:1027800000E0030400DC030400D8030400D40304C5
:1027900000D0030400CC030400C8030300C50303F6
:1027A0000024F404D9201BC40C5C0E9804C4095FF7
:1027B0000265077101F405F900FB04B300480487C2
:1027C00000C10369005803550003034500BE023AE7
:1027D000008402310053022A00290225000402204D
:1027E00000E4011C00C8011900AF01170098011492
:1027F0000084011300710110006101100051010EED
:102800000043010D0036010B002B010B0020010BD2
:1028100000150109000C01090003010800FB000874
:1028200000F3000800EB000700E4000600DE0006ED
:1028300000D8000600D2000600CC000500C7000545
:1028400000C2000500BD000400B9000400B500048A
:1028500000B1000400AD000400A9000400A50003BD
:1028600000A20003009F0004009B000300980003E7
:10287000009500020093000300900003008D000209
:10288000008B000300880002008600020084000321
:1028900000810002007F0002007D0002007B000238
:1028A0000079000200770001007600020074000247
:1028B0000072000100710002006F0002006D000153
:1028C000006C0002006A000100690002006700015C
:1028D0000066000100650001006400020062000162
:1028E0000061000100600001005F0002005D000166
:1028F000005C0001005B0001005A0001005900016A
:102900000058000100570001005600010055000169
:102910000054000100530000005300010052000168
:102920000051000100500001004F0001004E000066
:10293000004E0001004D0001004C0001004B000062
:10294000004B0001004A000100490001004800005E
:102950000048000100470001004600000046000159
:102960000045000000450001004400010043000054
:10297000004300010042000000420001004100004D
:102980000041000100400001003F0000003F000145
:10299000003E0000003E0001003D0000003D00013F
:1029A000003C0000003C0000003C0001003B000037
:1029B000003B0001003A0000003A0001003900002D
:1029C0000039000100380000003800000038000124
:1029D000003700000037000100360000003600001C
:1029E0000036000100350000003500000035000110
:1029F0000034000000340000003400010033000007
:102A000000330000003300010032000000320000FB
:102A100000320001003100000031000000310001EF
:102A2000003000000030000000300001002F0000E6
:102A3000002F0000002F0000002F0001002E0000DA
:102A4000002E0000002E0001002D0000002D0000CF
:102A5000002D0000002D0001002C0000002C0000C3
:102A6000002C0000002C0001002B0000002B0000B7
:102A7000002B0000002B0001002A0000002A0000AB
:102A8000002A0000002A000100290000002900009F
:102A90000029000000290000002900010028000092
:102AA0000028000000280000002800000028000185
:102AB000002700000027000000270000002700007A
:102AC000002700010026000000260000002600006C
:102AD000002600000026000100250000002500005F
:102AE0000025000000250000002500000025000151
:102AF0000024000000240000002400000024000046
:102B00000024000100230000002300000023000037
:102B10000023000000230000002300000023000128
:102B2000002200000022000000220000002200001D
:102B3000002200000022000100210000002100000E
:102B40000021000000210000002100000021000001
:102B500000210001002000000020000000200000F3
:102B600000200000002000000020000000200000E5
:102B700000200001001F0000001F0000001F0000D7
:102B8000001F0000001F0000001F0000001F0001C8
:102B9000001E0000001E0000001E0000001E0000BD
:102BA000004D383420582059205A20450020643ADE
:102BB0000020693A0020703A0023646566696E65FA
:102BC000202044454641554C545F4B64200023640B
:102BD0006566696E65202044454641554C545F4BFF
:102BE00069200023646566696E652020444546417E
:102BF000554C545F4B702000504944204175746F10
:102C000074756E652066696E69736865642120500D
:102C1000757420746865206C617374204B702C206F
:102C20004B6920616E64204B6420636F6E73746126
:102C30006E74732066726F6D2062656C6F772069A9
:102C40006E746F20436F6E66696775726174696F29
:102C50006E2E680A00504944204175746F74756E79
:102C600065206661696C6564212074696D656F75A6
:102C7000740A00504944204175746F74756E652064
:102C80006661696C6564212054656D70657261745C
:102C900075726520746F6F20686967680A00204B41
:102CA000643A2000204B693A2000204B703A200003
:102CB0000A20436C617373696320504944200A0001
:102CC0002054753A2000204B753A2000206D617821
:102CD0003A2000206D696E3A200020643A200020DE
:102CE000626961733A2000B5200A0046616465207C
:102CF0004865696768742000426564204C657665A4
:102D00006C696E6720004661696C656420746F2091
:102D1000656E61626C6520426564204C6576656C09
:102D2000696E670A004D65736820426564204C65D2
:102D300076656C20646174613A0A004D65736820A1
:102D4000706F696E742063616E6E6F7420626520AF
:102D50007265736F6C7665640A004D343231206998
:102D60006E636F727265637420706172616D6574F9
:102D700065722075736167650A004F6666736574D6
:102D800073206170706C696564004572723A2054FA
:102D90006F6F206661722100546F6F206661722030
:102DA00066726F6D207265666572656E6365207010
:102DB0006F696E740A00206E6F7420656E746572A0
:102DC00065642E0A000A4D65617375726564207032
:102DD0006F696E74733A0A005A206F666673657481
:102DE0003A20004E756D20582C593A20332C330A66
:102DF0000046696C652064656C657465643A0044DE
:102E0000656C6574696F6E206661696C65642C2001
:102E100046696C653A20006F70656E206661696C6A
:102E200065642C2046696C653A2000202F00204004
:102E30003A0048656174696E6720646F6E652E00A4
:102E400020573A004E6F7A7A6C6520257300A4A54E
:102E5000A6A700205A3A0020593A0020436F756E09
:102E60007420583A0020453A00205A3A0020593A36
:102E700000583A004361703A454D455247454E432C
:102E8000595F5041525345523A300A004361703AFB
:102E9000434153455F4C494748545F425249474874
:102EA000544E4553533A300A004361703A544F47E9
:102EB000474C455F4C49474854533A300A004361F8
:102EC000703A534F4654574152455F504F57455201
:102ED0003A300A004361703A4C4556454C494E47DA
:102EE0005F444154413A310A004361703A5A5F509D
:102EF000524F42453A300A004361703A4155544FAF
:102F00004C4556454C3A300A004361703A5052499C
:102F10004E545F4A4F423A310A004361703A505270
:102F20004F47524553533A300A004361703A415576
:102F3000544F5245504F52545F54454D503A310A08
:102F4000004361703A454550524F4D3A310A0046B0
:102F500049524D574152455F4E414D453A4D617280
:102F60006C696E20312E312E3520284769746875C2
:102F7000622920534F555243455F434F44455F55A7
:102F8000524C3A68747470733A2F2F67697468757D
:102F9000622E636F6D2F4D61726C696E4669726D42
:102FA000776172652F4D61726C696E2050524F547B
:102FB0004F434F4C5F56455253494F4E3A312E3096
:102FC000204D414348494E455F545950453A344D90
:102FD00061782045585452554445525F434F554EF1
:102FE000543A3120555549443A636564653261323B
:102FF000662D343161322D343734382D3962313217
:103000002D6335356336326633363766660A0020FF
:103010005A00205900580020204D61783A200020A5
:103020005A00205900580020204D696E3A2000B304
:103030002000B52000536F667420656E6473746F52
:1030400070733A200070012C0190012701B0012219
:1030500001C0011D01F00118011002130130020E20
:10306000016002090190020401C002FF000003FA9E
:10307000004003F5008003F000D003EB002004E6DD
:10308000007004E100E004DC004005D700C005D278
:10309000004006CD00D006C8008007C3003008BE3F
:1030A00000F008B900C009B400B00AAF00B00BAA24
:1030B00000D00CA500000EA000500F9B00C0109681
:1030C000005012910000148C00C0158700B01782C8
:1030D00000B0197D00D01B7800001E730040206EE8
:1030E0000090226900F024640040275F0090295A74
:1030F00000E02B5500102E500020304B00103246BF
:1031000000E033410090353C001037370070383212
:1031100000A0392D00B03A2800A03B2300603C1EDF
:1031200000103D1900903D1400103E0F00703E0A43
:1031300000C03E0500003F0000403FFBFF803FF61F
:10314000FFC03FF1FF6265640A002C20737973743D
:10315000656D2073746F70706564212048656174BB
:1031600065725F49443A2000544845524D414C2015
:1031700052554E4157415900546865726D616C203B
:1031800052756E617761790048656174696E672078
:103190006661696C65640048656174696E67206684
:1031A00061696C6564004572723A204D494E544520
:1031B0004D50004D494E54454D502074726967671B
:1031C00065726564004572723A204D415854454D10
:1031D00050004D415854454D5020747269676765E1
:1031E0007265640056652D6A65726B0056652D6ABE
:1031F00065726B0056652D6A65726B00567A2D6A92
:1032000065726B00567A2D6A65726B0056792D6A6D
:1032100065726B0056792D6A65726B0056792D6A5E
:1032200065726B0056782D6A65726B0056782D6A50
:1032300065726B0056782D6A65726B00DFB20045CF
:1032400073746570732F6D6D004573746570732FA3
:103250006D6D005A73746570732F6D6D005A7374C1
:103260006570732F6D6D005973746570732F6D6D7C
:10327000005973746570732F6D6D005873746570A9
:10328000732F6D6D005873746570732F6D6D00DF53
:10329000B20053746570732F6D6D004A65726B00D8
:1032A000416363656C65726174696F6E0056656C2D
:1032B0006F6369747900D8D90046696C2E2044691F
:1032C000612E0046696C2E204469612E00B52000F5
:1032D000B320004520696E206D6D3300D8D90043BE
:1032E000616E6E6F7420656E7465722073756264B2
:1032F00069723A2000022E2E00AEAFB0000000220C
:1033000000250028002B002E0031003400020100AF
:1033100000050108010B0100002000230026002900
:10332000002C002F003200000100000301060109FB
:103330000105050505070508080808020202020A3A
:103340000A08080404040401010101010101010348
:1033500003030303030303040707070C0C0C0C0C03
:103360000C0C0C0202020206060606060606060BF6
:103370000B0B0B0B0B0B0B0102102020080810206D
:1033800040102040800201020108040201010204F1
:1033900008102040808040201008040201800402B0
:1033A0000180402010080402010804020101020407
:1033B0000810204080010204081020408000000A0C
:1033C0000B02090C0D0E08070304010000000000A9
:1033D00000000000000000000000000000000000ED
:1033E00000000000000000000012111000000000AA
:1033F00000000000000000000000000000000000CD
:103400000000002020506C616E6E65724275666629
:10341000657242797465733A2000204672656520B2
:103420004D656D6F72793A2000436F6D70696C6500
:10343000643A2041707220203820323031390A003D
:10344000207C20417574686F723A2028414E5943A0
:103450005542494320466F75724D61782C20563194
:103460002E30290A00323031372D30392D323220BA
:1034700031323A303000204C6173742055706461F1
:103480007465643A2000312E312E350A004D617288
:103490006C696E0020536F667477617265205265A7
:1034A0007365740A00205761746368646F67205203
:1034B000657365740A002042726F776E206F7574B1
:1034C0002052657365740A002045787465726E61D8
:1034D0006C2052657365740A00506F776572557081
:1034E0000A0073746172740A006572726F722077D9
:1034F000726974696E6720746F2066696C650A0072
:10350000456E6473746F70732025632025632025D6
:103510006320256300205A3A0020593A0020583A87
:1035200000656E6473746F7073206869743A20006C
:10353000446F6E6520736176696E672066696C659D
:103540002E0A004D32390048617264636F6465640D
:103550002044656661756C742053657474696E6788
:1035600073204C6F616465640A00BC020000BC02F9
:103570000000640000001027000000001643000057
:103580001643000070410000A0420000A04200006D
:10359000A8420000CA433333B94220440020490006
:1035A00020204D3330312050005049442073657441
:1035B00074696E67733A0A00204600204200204872
:1035C0000020204D3134352053004D6174657269FF
:1035D000616C2068656174757020706172616D65E1
:1035E000746572733A0A00205A002059002020475F
:1035F0003239205333205800205A0020204D3432D5
:10360000302053004D65736820426564204C657618
:10361000656C696E673A0A00205A00205900202024
:103620004D323036205800486F6D65206F666673E6
:1036300065743A0A00204500205A0020590020589D
:103640000020420020540020204D3230352053000D
:10365000416476616E6365643A20533C6D696E5FC8
:1036600066656564726174653E20543C6D696E5F89
:1036700074726176656C5F66656564726174653EDF
:1036800020423C6D696E5F7365676D656E745F7433
:10369000696D655F6D733E20583C6D61785F787928
:1036A0005F6A65726B3E205A3C6D61785F7A5F6A33
:1036B00065726B3E20453C6D61785F655F6A65723F
:1036C0006B3E0A0020540020520020204D3230343E
:1036D000205000416363656C65726174696F6E2090
:1036E00028756E6974732F7332293A20503C7072BA
:1036F000696E745F616363656C3E20523C726574F1
:10370000726163745F616363656C3E20543C7472E4
:103710006176656C5F616363656C3E0A00204500FD
:10372000205A0020590020204D3230312058004DC1
:103730006178696D756D20416363656C6572617454
:10374000696F6E2028756E6974732F7332293A0A77
:1037500000204500205A0020590020204D323033EF
:103760002058004D6178696D756D206665656472DD
:10377000617465732028756E6974732F73293A0A12
:1037800000204500205A0020590020204D393220C9
:10379000580053746570732070657220756E69747B
:1037A0003A0A0020204D3230302044300A002020D8
:1037B0004D3230302044002044697361626C65648E
:1037C0000A0046696C616D656E7420736574746976
:1037D0006E67733A0020204D3134392043203B205E
:1037E000556E69747320696E2043656C73697573D7
:1037F0000A002020473231202020203B20556E69CE
:10380000747320696E206D6D0A0020204E6F7A7AE5
:103810006C653A200020004261636B004D696E695F
:103820006D756D2054656D70206973203137302EB1
:103830000048656174696E67206661696C65640043
:10384000F4F5CCAD00E7E8CAF300524553554D45B9
:10385000204F5054494F4E533A0020204E6F7A7AF1
:103860006C653A20002000E0E1EAEB8888888888CF
:103870008800FCFD888888005052494E54205041F1
:10388000555345440020204E6F7A7A6C653A2000EB
:103890002000E0E1CDAD88888888888800FCFD881C
:1038A0008888005052494E54205041555345440099
:1038B00020204E6F7A7A6C653A20002000506C65AB
:1038C00061736520776169742E2E2E0048656174DE
:1038D000696E67206E6F7A7A6C65005052494E545B
:1038E000205041555345440020204E6F7A7A6C6534
:1038F0003A20002000507265737320627574746FF3
:103900006E20746F005052494E542050415553451B
:10391000440020204E6F7A7A6C653A20002000AA7D
:10392000ABE0E1888888888888005052494E54204E
:103930005041555345440020204E6F7A7A6C653AC9
:103940002000E0E1B7AB8888888888888800FCFD83
:10395000888888005052494E542050415553454460
:103960000020204E6F7A7A6C653A20002000E0E15A
:10397000CCAD88888888888800FCFD8888880050BD
:1039800052494E542050415553454400E7E8CAF38C
:1039900088888888888800FCFD888888005052497B
:1039A0004E5420504155534544007C3C3E5E2B3DD7
:1039B0003F2F5B5D3B2C2A225C0057726974696E55
:1039C0006720746F2066696C653A20006F70656EC1
:1039D000206661696C65642C2046696C653A20003C
:1039E0006F70656E206661696C65642C2046696C39
:1039F000653A200046696C652073656C6563746583
:103A0000640A002053697A653A200046696C652093
:103A10006F70656E65643A20006F70656E20666138
:103A2000696C65642C2046696C653A2000206669E3
:103A30006C653A20004E6F7720002220706F730073
:103A40002220706172656E743A2200535542524FC3
:103A50005554494E452043414C4C20746172676572
:103A6000743A22004B494C4C45442E200074727924
:103A7000696E6720746F2063616C6C207375622DB2
:103A800067636F64652066696C6573207769746825
:103A900020746F6F206D616E79206C6576656C7334
:103AA0002E204D4158206C6576656C2069733A0074
:103AB00043616E6E6F74206F70656E207375626403
:103AC0006972200020746F6F206C6F6E67206578BC
:103AD00074727573696F6E2070726576656E746549
:103AE000640A0020636F6C64206578747275736972
:103AF0006F6E2070726576656E7465640A00290ABF
:103B0000002062797465733B206372632000536503
:103B10007474696E67732053746F72656420280033
:103B2000202863616C63756C6174656429210A00E7
:103B300020213D2000454550524F4D204352432007
:103B40006D69736D61746368202D202873746F72C2
:103B50006564292000290A002062797465733B207E
:103B600063726320002073746F72656420736574E0
:103B700074696E6773207265747269657665642016
:103B80002800204D61726C696E3D563430290A0060
:103B900028454550524F4D3D00454550524F4D2010
:103BA00076657273696F6E206D69736D6174636899
:103BB0002000526573656E643A20006F6B002074BC
:103BC0006F6F206C6F6E6720657874727573696FA4
:103BD0006E2070726576656E7465640A0020636F8E
:103BE0006C6420657874727573696F6E207072658D
:103BF00076656E7465640A00627573793A20706147
:103C00007573656420666F7220696E7075740A0042
:103C1000627573793A2070617573656420666F729E
:103C200020757365720A00627573793A2070726F3D
:103C300063657373696E670A004B494C4C45442EAB
:103C400020004B494C4C2063617573656420627998
:103C500020746F6F206D75636820696E616374698D
:103C600076652074696D65202D2063757272656EAE
:103C70007420636F6D6D616E643A2000506C6561F5
:103C80007365207265736574005052494E544552F5
:103C90002048414C544544005072696E746572204E
:103CA00068616C7465642E206B696C6C28292063D4
:103CB000616C6C6564210A0000002100240027006B
:103CC0002A002D003000330001010000040107012B
:103CD0000A014D3432205034352053323535004DF1
:103CE00034322050343520533000436C6F736520DC
:103CF0004C4544004F70656E204C454400AEAFB05B
:103D000000AEAFB000F9A800100E0F00AEAFB000CB
:103D10005072696E7420706175736564004D313244
:103D20003500004D3234005072696E742061626F4C
:103D30007274656400F7E6F8A800F2F6CAF300F4BE
:103D4000F5CAF300F9A800F1F2CAF3000A0B0C0D52
:103D500000D8D900A4A500CFF000437573746F6D2F
:103D600020436F6D6D616E647300ECEDEEEF004DFE
:103D7000363030204230004572726F72207772699F
:103D800074696E6720746F20454550524F4D210A6B
:103D900000003EF23CF411241FBECFEFD1E2DEBFA3
:103DA000CDBF00E00CBF13E0A0E0B2E0ECEFFCE020
:103DB00002E00BBF02C007900D92A23CB107D9F7F9
:103DC00024E1A2ECB3E001C01D92A636B207E1F7F0
:103DD0001EE1CAECDEE100E006C021970109802F58
:103DE000FE010F94D405C93CD10780E00807A9F76C
:103DF0000E9449F50D946D060C9400002F923F929D
:103E00004F925F926F927F928F929F92AF92BF92EA
:103E1000CF92DF92EF92FF920F931F93CF93DF9396
:103E2000CDB7DEB7CB56D1090FB6F894DEBF0FBEC3
:103E3000CDBF0091561220E6029F800111240A5244
:103E40001F4E80915B1480FF1AC0EEEEF0E184916A
:103E50007F013FEFE31AF30A811102C0780104C029
:103E60000E94763DF701F3CFD7018D917D01882324
:103E700019F00E94763DF8CF8AE00E94763D81E0FD
:103E800090E09093D90A8093D80A1092F50310928B
:103E9000F4038FE38093FF031092FE031092FD035F
:103EA00084E0ECEDF3E0DF011D928A95E9F7F8017B
:103EB00080810F5F1F4F8032D1F38E34C9F481812E
:103EC00090ED980F9A3020F08D3211F08B3281F402
:103ED000DF0112969D012F5F3F4F8C9180538A30F6
:103EE00010F4D901F7CFFD01119680818032D9F30A
:103EF000F0932F14E0932E147F01BFEFEB1AFB0A0F
:103F000010816AE270E0C7010F943506009731F026
:103F1000FC01319780818032E1F311821D3431F14F
:103F2000143521F1173411F1EEEEF0E184918F0197
:103F30000F5F1F4F882321F00E94763DF801F6CFD6
:103F400060912E1470912F148DE895E00E949B7E55
:103F500082E20E94763D8AE00E94763D1092D90A64
:103F60001092D80A0E9483DC0C94F035C701FC0142
:103F7000208101962032D9F320532A30A8F61093DD
:103F8000FF0380E090E06AE03196DF0111972C9109
:103F9000022E000C330B20533109689FA001699F4A
:103FA000500D1124C901840F951F208120532A3000
:103FB00058F39093FE038093FD03DF0131962C911B
:103FC0002032D9F31D34D1F48E31910591F03CF4B7
:103FD0008731910571F08C31910581F40AC08537E4
:103FE000910564F08737910524F0803AE3E09E075D
:103FF00029F4B093F503A093F4037DC01092F50368
:104000001092F40300912E14EE24E394F12CFD01A0
:1040100031962C91222309F46EC02132A9F41D346B
:1040200099F48032910581F4F093F503E093F40361
:1040300063E270E0CF010F943506009711F40C9401
:10404000262ADC011C9257C021542A31A0F5AF0169
:10405000FA0130814F5F5F4F3032D1F340ED430FB3
:104060004A3040F043ED430F423020F03B3211F034
:104070000C947135AF01622F70E0DB0133E0B59530
:10408000A7953A95E1F7A452BC4F2770670102C08B
:10409000CC0CDD1C2A95E2F796013C91232B2C9346
:1040A0004115510511F0401B01C040E0DB01AE534A
:1040B000BC4F4C930AC02091F4033091F503232B9D
:1040C00021F4B093F503A093F403208121542A3105
:1040D00010F4DF019CCFDF01AD014F5F5F4F2C91EA
:1040E00020532A3010F4DA01F7CFFD011196208118
:1040F0002032D9F3EECF8091FF038D3411F40C946C
:10410000262A843511F40C942F35873409F00CCF0E
:104110002090FD033090FE0325E02216310409F4BF
:1041200012C66CF444E0241631040CF0C7C552E00A
:10413000251631040CF04BC037FE27C00FCF8AE2A2
:104140002816310411F40C948A295CF4ACE12A1687
:10415000310409F473C6BDE12B16310409F472C6AB
:10416000FDCEEBE52E16310411F40C942829FCE564
:104170002F16310411F40C942D292AE5221631044E
:1041800009F0ECCE1092FB03E9CE80916F028823F8
:1041900009F4E4CE0E941E3C809159148130A1F4B0
:1041A00080918212882381F020E030E040EA51E4DF
:1041B0006091E60A7091E70A8091E80A9091E90A15
:1041C0000E9492FE87FDCACE0E9475DBC7CE809109
:1041D0006F02882309F4C2CE0E941E3C82E50E9431
:1041E000123C882309F452C10E94B03B4B015C0190
:1041F00080912F0790913007A0913107B09132073D
:1042000088AF99AFAAAFBBAF209133073091340785
:1042100040913507509136072CAF3DAF4EAF5FAFA1
:104220008091DA0A9091DB0AA091DC0AB091DD0A54
:104230002C968CAF9DAFAEAFBFAF2C972091DE0A0E
:104240003091DF0A4091E00A5091E10A24962CAFA8
:104250003DAF4EAF5FAF249720E030E0A901C5012C
:10426000B4010E9492FE882309F440C12C962CAD23
:104270003DAD4EAD5FAD2C9768AD79AD8AAD9BADD0
:104280000E9492FE81110FC024962CAD3DAD4EAD23
:104290005FAD24976CAD7DAD8EAD9FAD0E9492FE5B
:1042A000882309F423C111E032E02316310409F018
:1042B00010E020E030E0A901C501B4010E9492FEA7
:1042C000881F8827881F181759F080E090E0A0E821
:1042D000BFEB64968CAF9DAFAEAFBFAF64970AC023
:1042E00020E030E040E85FE364962CAF3DAF4EAF96
:1042F0005FAF649728AD39AD4AAD5BAD2C966CAD20
:104300007DAD8EAD9FAD2C970F94BB0228966CAF00
:104310007DAF8EAF9FAF28972CAD3DAD4EAD5FAD5D
:1043200024966CAD7DAD8EAD9FAD24970F94BB02EE
:104330006B017C0128962CAD3DAD4EAD5FAD28974D
:10434000CA01B9010E94F7FE2B013C01A7019601A9
:10435000C701B6010E94F7FE9B01AC01C301B20187
:104360000F94BC020F94270560966CAF7DAF8EAFA3
:104370009FAF609720E030E040E05FE30E94F7FEEF
:104380002B013C01A5019401C501B4010E94F7FE77
:104390004B015C01A3019201C301B2010E94F7FE2F
:1043A0009B01AC01C501B4010F94BB020F9427051A
:1043B00064962CAD3DAD4EAD5FAD64970E94F7FEA7
:1043C0004B015C01C701B601905860962CAD3DAD24
:1043D0004EAD5FAD60970F949803A50194010E94C4
:1043E000F7FE6B017C012C962CAD3DAD4EAD5FAD63
:1043F0002C9768AD79AD8AAD9BAD0F94BC0220E0DF
:1044000030E040E05FE30E94F7FE9B01AC01C70192
:10441000B6010F94BC0228AD39AD4AAD5BAD0F9427
:10442000BB026B017C0124962CAD3DAD4EAD5FAD62
:1044300024976CAD7DAD8EAD9FAD0F94BC0220E096
:1044400030E040E05FE30E94F7FE2B013C01609604
:104450002CAD3DAD4EAD5FAD609728966CAD7DAD9A
:104460008EAD9FAD28970F949803A50194010E94EB
:10447000F7FE9B01AC01C301B2010F94BC022CAD4D
:104480003DAD4EAD5FAD0F94BB0214C089E40E94F8
:10449000123C882329F00E94B03B6B017C0103C0D1
:1044A000C12CD12C76018AE40E94123C882309F1A8
:1044B0000E94B03B2C966CAF7DAF8EAF9FAF2C9718
:1044C00020E030E0A901C701B6010E9492FE8111EF
:1044D0001FC020E030E0A9012C966CAD7DAD8EAD03
:1044E0009FAD2C970E9492FE811112C0EBEAF0E181
:1044F000D2C320E030E0A901C701B6010E9492FEBC
:104500008823A1F32C961CAE1DAE1EAE1FAE2C97B9
:10451000D701C601B05888AF99AFAAAFBBAF2C96F0
:104520002CAD3DAD4EAD5FAD2C9750582CAF3DAF8F
:104530004EAF5FAF9C01AD01BC01CD010E94F7FE03
:104540004B015C012CAD3DAD4EAD5FADCA01B90173
:104550000E94F7FE9B01AC01C501B4010F94BC029F
:104560000F942705A4966CAF7DAF8EAF9FAFA49735
:1045700080912F0790913007A0913107B0913207B9
:1045800024968CAF9DAFAEAFBFAF2497A701960125
:10459000BC01CD010F94BC0264966CAF7DAF8EAFB1
:1045A0009FAF6497209133073091340740913507CE
:1045B0005091360760962CAF3DAF4EAF5FAF60971E
:1045C0002C962CAD3DAD4EAD5FAD2C9760966CAD8D
:1045D0007DAD8EAD9FAD60970F94BC02A8966CAF79
:1045E0007DAF8EAF9FAFA8978091DA0A9091DB0ADA
:1045F000A091DC0AB091DD0A68968CAF9DAFAEAF9A
:10460000BFAF689764962CAD3DAD4EAD5FAD64977E
:10461000BC01CD010F94BB026B017C012091DE0A2D
:104620003091DF0A4091E00A5091E10A6C962CAF7C
:104630003DAF4EAF5FAF6C97A8962CAD3DAD4EAD84
:104640005FADA8976C966CAD7DAD8EAD9FAD6C9750
:104650000F94BB024B015C018091370790913807A2
:10466000A0913907B0913A07A0968CAF9DAFAEAF3D
:10467000BFAFA0979C01AD016091E20A7091E30A7F
:104680008091E40A9091E50A0F94BB0228966CAFE2
:104690007DAF8EAF9FAF2897A701960168AD79AD2A
:1046A0008AAD9BAD0E94F7FE2B013C01A501940150
:1046B0006CAD7DAD8EAD9FAD0E94F7FE9B01AC0150
:1046C000C301B2010F94BC022B013C01A50194016E
:1046D00068AD79AD8AAD9BAD0E94F7FE4B015C01E0
:1046E000A70196016CAD7DAD8EAD9FAD0E94F7FE2A
:1046F0009B01AC01C501B4010F94BB02A30192015F
:104700000F942F036B017C0120E030E0A9010E948F
:1047100092FE87FF0AC02BED3FE049EC50E4C70151
:10472000B6010F94BC026B017C0192E029163104A2
:1047300051F42BED3FE049EC50E4C701B6010F9472
:10474000BB026B017C0120E030E0A901C701B6018A
:104750000E9492FE811128C068962CAD3DAD4EADF1
:104760005FAD689724966CAD7DAD8EAD9FAD2497FF
:104770000E9492FE811118C06C962CAD3DAD4EADDD
:104780005FAD6C9760966CAD7DAD8EAD9FAD609763
:104790000E9492FE811108C07BEDC72E7FE0D72ECC
:1047A00079ECE72E70E4F72EA7019601A4966CAD84
:1047B0007DAD8EAD9FADA4970E94F7FE9B01AC012D
:1047C0000E94F7FE4B015C0128962CAD3DAD4EAD2D
:1047D0005FAD2897CA01B9010E94F7FE9B01AC01A9
:1047E000C501B4010F94BC020F9427054B015C0175
:1047F0002FE632E143E85AE30E9492FE87FD45C26C
:10480000C501B4010F9431040F9405042E967FAFB7
:104810006EAF2E97DB01AB2B31F4E1E0F0E02E968A
:10482000FFAFEEAF2E9740903B0750903C07609053
:104830003D0770903E072E962EAD3FAD2E97B901E5
:1048400080E090E00E9496FE4B015C019B01AC0170
:10485000C701B6010F94980324966CAF7DAF8EAF5D
:104860009FAF2497A501940128966CAD7DAD8EADC8
:104870009FAD28970F949803A4966CAF7DAF8EAF31
:104880009FAFA497A30192016091E60A7091E70A95
:104890008091E80A9091E90A0F94BB02A501940166
:1048A0000F949803AC966CAF7DAF8EAF9FAFAC9773
:1048B00024962CAD3DAD4EAD5FAD2497CA01B90134
:1048C0000E94F7FE20E030E040E05FE30E94F7FE48
:1048D0009B01AC0160E070E080E89FE30F94BB02B5
:1048E00068966CAF7DAF8EAF9FAF6897A0968CAD8A
:1048F0009DADAEADBFADA09789879A87AB87BC87CA
:104900004D865E866F86788A609166027091670236
:10491000072E000C880B990B0E9498FE20919002A4
:104920003091910240919202509193020E94F7FEC1
:104930002AE037ED43E25CE30E94F7FE6C966CAF31
:104940007DAF8EAF9FAF6C970E94C2DE9B01AC0122
:1049500028533F4F4F4F5F4FA0962CAF3DAF4EAF08
:104960005FAFA09748AC59AC6AAC7BAC22242394CF
:10497000312C39E125963FAF25972E964EAD5FAD90
:104980002E974215530509F442C10E947F940E945C
:10499000C2DEDC01CB01A0962CAD3DAD4EAD5FADCE
:1049A000A097821B930BA40BB50BB7FD11C00E94FF
:1049B000C2DE9B01AC0128533F4F4F4F5F4FA09683
:1049C0002CAF3DAF4EAF5FAFA09780E00E9482D882
:1049D00025963FAD2597315025963FAF2597332338
:1049E00009F445C02CAD3DAD4EAD5FAD68966CADE4
:1049F0007DAD8EAD9FAD68970E94F7FE6B017C0187
:104A00009201A30124966CAD7DAD8EAD9FAD249730
:104A10000E94F7FEA70196010F94BC026B017C0176
:104A20009201A30168966CAD7DAD8EAD9FAD689788
:104A30000E94F7FE4B015C012CAD3DAD4EAD5FAD6C
:104A400024966CAD7DAD8EAD9FAD24970E94F7FE90
:104A50009B01AC01C501B4010F94BB022B013C01C9
:104A6000C601D7018CAF9DAFAEAFBFAF55C0B1018E
:104A700080E090E00E9496FE24962CAD3DAD4EADB8
:104A80005FAD24970E94F7FE4B015C010F949503E4
:104A90006B017C01C501B4010F941D054B015C0144
:104AA000A701960168AD79AD8AAD9BAD0E94F7FE76
:104AB0002B013C012C962CAD3DAD4EAD5FAD2C973E
:104AC000C501B4010E94F7FEA30192010F94BC023C
:104AD0002B013C01A501940168AD79AD8AAD9BAD78
:104AE0000E94F7FE4B015C012C962CAD3DAD4EAD06
:104AF0005FAD2C97C701B6010E94F7FE9B01AC0188
:104B0000C501B4010F94BB026CAF7DAF8EAF9FAFF8
:104B100049E125964FAF25979201A30164966CADAC
:104B20007DAD8EAD9FAD64970F94BC0269837A838F
:104B30008B839C832CAD3DAD4EAD5FADA8966CAD27
:104B40007DAD8EAD9FADA8970F94BC026D837E8323
:104B50008F839887A4962CAD3DAD4EAD5FADA497E5
:104B600069857A858B859C850F94BC0269877A87D5
:104B70008B879C87AC962CAD3DAD4EAD5FADAC97B1
:104B80006D857E858F8598890F94BC026D877E87A1
:104B90008F87988B80916302882321F0CE01019644
:104BA0000E94A964C090120B89819A81AB81BC815B
:104BB00088A399A3AAA3BBA38D819E81AF81B88549
:104BC0008CA39DA3AEA3BFA389859A85AB85BC8525
:104BD00088A799A7AAA7BBA7CE0180960E94913C5F
:104BE0006C96ECACFDAC0EAD1FAD6C979E01235FD7
:104BF0003F4FAE01485D5F4FBE016C5D7F4FCE0100
:104C000080960E94CDBD5FEF251A350AB6CEC090C2
:104C1000120B8091DA0A9091DB0AA091DC0AB09124
:104C2000DD0A88A399A3AAA3BBA38091DE0A909171
:104C3000DF0AA091E00AB091E10A8CA39DA3AEA384
:104C4000BFA38091E20A9091E30AA091E40AB09197
:104C5000E50A88A799A7AAA7BBA7CE0180960E94BC
:104C6000913C6C96ECACFDAC0EAD1FAD6C9726EE96
:104C70003AE0AE01485D5F4FBE016C5D7F4FCE01F3
:104C800080960E94CDBD0E9440370E94993C66C923
:104C90000E94763DF80184918F010F5F1F4F8111B3
:104CA000F7CFE1E4F2E084918F010F5F1F4F88237B
:104CB00009F454C90E94763DF801F5CF80E50E94C1
:104CC000123C882329F00E94703B6B017C0103C0D9
:104CD000C12CD12C760183E50E94123C882361F01F
:104CE0000E94B03B20E030E04AE754E40E94F7FE27
:104CF0000F9405046B017C010E946D978091100256
:104D0000811105C060E087E592E00E945B5E0E9431
:104D1000993C8091301490913114A0913214B0914B
:104D20003314C80ED91EEA1EFB1E0E94C2DEDC012F
:104D3000CB018C199D09AE09BF09B7FF0FC980E0EF
:104D40000E9482D8F2CF8C9A80918212882309F433
:104D500062C084E190E099A388A3BE016F5F7F4F9A
:104D6000CE0180960E9448B860EF73E0CE01809635
:104D70000E9448B860EE73E0CE0180960E9448B869
:104D800064EE73E0CE0180960E9448B868EE73E04E
:104D9000CE0180960E9448B86CEE73E0CE018096FA
:104DA0000E9448B88091F0039091F103A091F20322
:104DB000B091F30385369105A105B1055CF0059727
:104DC000A109B1098093F0039093F103A093F2033A
:104DD000B093F3034091F0035091F1036091F2031B
:104DE0007091F30340938E0A50938F0A6093900A58
:104DF0007093910A8DED99E00E9498EF81E0809385
:104E0000831280935914109282128FEF90E0909346
:104E1000BF048093BE04669BA1C881E08093841286
:104E20008BE396E39093A6028093A50280916A009B
:104E30008F7C806180936A00EE9A90C880E00E9427
:104E4000A43C8CC883E50E94123C882319F00E9480
:104E5000903B01C080E0863068F0EEEFF2E0849194
:104E60008F010F5F1F4F882309F478C80E94763D99
:104E7000F801F5CF823009F445C0A0F48823E9F0A9
:104E8000813009F0E1C10E9498A3109201021092B2
:104E900000028BEC92E090930E0780930D070E9426
:104EA0009A39D2C1843009F4C0C108F459C185309F
:104EB00009F0CAC10E94623BC7C180911F0B80FDEF
:104EC00003C0EEEDF2E013C00E94E33A882319F02C
:104ED0006CE173E002C06FE173E086ED92E00E9446
:104EE0009B7E8AE00E94763D0E94708EADC18491C7
:104EF0008F010F5F1F4F882309F4A6C10E94763DE2
:104F0000F801F5CF009100021091010217FF0DC0CA
:104F1000E2EAF2E084918F010F5F1F4F882309F4CA
:104F20001DC80E94763DF801F5CF0115110529F441
:104F3000809163028093FC030CC08FEF800F0E946E
:104F40007A548091FC0380936302093011050CF0C0
:104F5000B7C0802F63E00F948405782E692E80FF00
:104F600003C082E0891B682EC0909002D09091020D
:104F7000E0909202F090930280903707909038076B
:104F8000A0903907B0903A0708E211E2F801859144
:104F90009591A591B4918093900290939102A093E2
:104FA0009202B093930220E030E040EA50E4609136
:104FB0001B0B70911C0B80911D0B90911E0B0F947D
:104FC000BC0260933707709338078093390790933A
:104FD0003A070E94A53785E595E5A5E0B3E48093FF
:104FE000900290939102A0939202B0939302862D27
:104FF00094E08902D0011124A852B84F2091130BDC
:105000003091140B4091150B5091160B6D917D91C1
:105010008D919C910F94BC0260932F077093300781
:105020008093310790933207A72DB4E0AB02F001D3
:105030001124E453F84F2091170B3091180B409135
:10504000190B50911A0B60817181828193810F94A9
:10505000BC026093330770933407809335079093B5
:1050600036070E94A537F80185919591A591B491D5
:105070008093900290939102A0939202B093930236
:105080008092370790923807A0923907B0923A077A
:105090000E94A537C0929002D0929102E0929202B3
:1050A000F09293020E946D97109263028091000229
:1050B0009091010201969093010280930002C4C076
:1050C00020E030E0A90160911B0B70911C0B8091D6
:1050D0001D0B90911E0B0F94BC0220E030E040EAC3
:1050E00050E40F94BC0260933707709338078093A5
:1050F000390790933A070E94A5370E946D978FEF6A
:105100009FEF9093010280930002EEE8F2E0849119
:105110008F010F5F1F4F882321F00E94763DF80119
:10512000F6CF83E992E09A83898304E610E019A31D
:1051300008A3BE016F5F7F4FCE0180960E9414B816
:105140008AEB92E09A83898319A308A3BE016F5F5B
:105150007F4FCE0180960E9414B80E94658E74C065
:1051600088E50E94123C8823A1F00E94803B1FEF3B
:10517000160F1330A8F0E7E7F2E084918F010F5F7C
:105180001F4F882311F40C94AE1F0E94763DF80146
:10519000F4CF88E50E94763D0E945DF40C94AE1F2A
:1051A00089E50E94123C8823A1F00E94803B0FEF0A
:1051B000060F0330A8F0E0E6F2E084918F010F5F64
:1051C0001F4F882311F40C94AE1F0E94763DF80106
:1051D000F4CF89E50E94763D0E945DF40C94AE1FE9
:1051E0008AE50E94123C8823C9F00E94B03B212F1F
:1051F000110F330BF901EE0FFF1FE20FF31FE00F4A
:10520000F11D07FDFA95EE0FFF1FEE0FFF1FE15C8A
:10521000F84F608371838283938316C08AE50E946E
:10522000763D0E945DF40C94AE1F8AE50E94123C0C
:105230008823A1F30E94B03B6093230B7093240B4F
:105240008093250B9093260B0E94B28A0C94AE1F7C
:1052500081E08093FB030C94AE1F85E40E94123C16
:10526000B82E811102C00E946D979AEA892E92E0B1
:10527000992E2FE2C22E27E0D22E3CECE32E3AE00C
:10528000F32E00E010E0A12CF40181914F010E9467
:10529000123C882329F1D6014D905D906D907C9051
:1052A0000E94B03BF6016083718382839383033055
:1052B000B9F0A30192010F94BB029B01AC01D7018D
:1052C0006D917D918D919C910F94BC02F70160834B
:1052D000718382839383C8010E94EC38AA24A3942B
:1052E0000F5F1F4FF4E0CF0ED11C24E0E20EF11C43
:1052F0000430110549F6AA2019F00E94F93906C0B8
:10530000BB2021F08BE397E00E94DA550E94B28A1D
:105310000C94AE1F80916F02882311F40C94AE1F81
:1053200089E40E94123CE82E882321F00E94803BF1
:10533000062F01C000E08AE40E94123CF82E882368
:1053400021F00E94803B162F01C010E0EE2011F0EA
:10535000033020F4FF2081F0133070F0E5E1F3E03A
:1053600084918F010F5F1F4F882311F40C94AE1F9F
:105370000E94763DF801F4CF0E943637EE20E1F02E
:1053800034E00302F0011124E852F84F2091130B8E
:105390003091140B4091150B5091160B6081718167
:1053A000828193810F94BC026093DA0A7093DB0AC6
:1053B0008093DC0A9093DD0AFF20E1F044E01402C0
:1053C000F0011124E453F84F2091170B3091180B82
:1053D0004091190B50911A0B6081718182819381E8
:1053E0000F94BC026093DE0A7093DF0A8093E00A98
:1053F0009093E10A80E50E94E33B81110E94A13B6A
:1054000086E40E94123C882311F40C94E4200E944C
:10541000B03B6B017C0120E030E0A9010F94E20475
:10542000181614F00C94E42020E030E040E752E439
:10543000C701B6010F949803609390027093910294
:1054400080939202909393020C94E4208091FD0348
:105450009091FE038237910509F44FC70CF0E4C028
:105460008B34910509F46DC40CF070C0883191053E
:1054700009F4A4C2E4F58231910509F470C6F4F48C
:1054800097FF02C00C94AE1F823091050CF4B3C19B
:10549000419711F00C94AE1F60E089E593E00E9403
:1054A0005B5E5F988A989FB7F894809108018E7F21
:1054B000809308019FBF12980C94AE1F853191050F
:1054C00009F461C23CF4449711F00C94AE1FE1E77B
:1054D000F3E019C28631910509F459C2479711F0DA
:1054E0000C94AE1FE091F403F091F5035AC28C3195
:1054F000910509F4DEC2A4F48A31910509F47DC254
:105500000CF09AC2109212080E9475B882E893E0DB
:1055100090930E0780930D070E949A390C94AE1F4A
:105520008F31910509F419C344F44E9711F00C948E
:10553000AE1F0E94238F0C94AE1F8032910509F498
:10554000C2C28A9709F4BFC30C94AE1F8836910576
:1055500009F403C40CF040C08235910509F4F6C586
:1055600014F58D34910509F4F4C30CF4EEC38135C0
:10557000910511F00C94AE1F0E94E2920E946D976B
:105580000E940AD81092BF041092BE0468EE73E025
:1055900080E090E00E949F5B60E089E394E00E94DD
:1055A0005B5E0C94AE1F8435910509F4D8C50CF4EC
:1055B000D1C58535910509F405C68C35910511F0E5
:1055C0000C94AE1FBAEACB2EB2E0DB2E1FE1E12E27
:1055D00017E0F12E10E011C68D36910509F415C5BE
:1055E0009CF48A36910509F414C50CF4C9C48B36B1
:1055F000910509F42DC58C36910511F00C94AE1F60
:105600001092A9020C94AE1F8F36910509F408C4BC
:105610000CF4F3C38037910509F470C48137910508
:1056200009F470C40C94AE1F8D3D910511F40C94D7
:1056300020340CF05DC08139910509F414C724F5BC
:105640008737910509F4D4C07CF48537910509F4B6
:105650005AC60CF061C68337910511F00C94AE1F49
:105660000E94298A0C94AE1F8937910509F4F5C66A
:105670000CF4ECC68D37910509F4FCC48C38910507
:1056800009F46DC40C94AE1F8C3C910509F4D9C784
:10569000DCF4883C910509F449C734F48B39910551
:1056A00009F48AC40C94AE1F893C910509F492C791
:1056B0008B3C910511F00C94AE1F2AEAE22E22E0F9
:1056C000F22E02ED14E0AEC78E3C910511F40C945D
:1056D000F43314F40C948D33833D910511F40C9440
:1056E0000F348C3D910511F40C9413340C94AE1FBF
:1056F000843A51E0950711F40C94E534ACF58E3200
:10570000B1E09B0711F40C948E3484F48C32F1E0F8
:105710009F0711F40C94643414F00C948A34823E84
:10572000910511F40C943A340C94AE1F833631E099
:10573000930709F459C04CF48F32914011F00C9446
:10574000AE1F0E941D850C94AE1F8039A1E09A0700
:1057500011F40C94E1348A39914011F00C94AE1F8D
:105760000E94E2840C94AE1F863FE1E09E0711F494
:105770000C94F134FCF48C3A21E0920711F40C946F
:10578000E9344CF4853A914011F00C94AE1F0E941C
:1057900032830C94AE1F843F51E0950711F40C94B2
:1057A000ED34853F914011F00C94AE1F0E940BCC5C
:1057B0000C94AE1F8835B2E09B0711F40C940235AF
:1057C0003CF4873F914011F40C94F5340C94AE1FD7
:1057D000803A23E0920709F4B3C1873E934011F465
:1057E0000C941D350C94AE1FEBEAF0E10C940935D6
:1057F000EEE5F4E0CBC5A090F403B090F50380E5AE
:105800000E94123C882359F00E94703B6B017C017E
:1058100011E0672B682B692B31F410E004C010E015
:10582000C12CD12C760183E50E94123C8823F1F033
:105830000E94B03B20E030E04AE754E40E94F7FECB
:105840000F9405046B017C01111112C0672B682BAA
:10585000692B71F4A114B10459F0D5018C918823FE
:1058600039F061E0C5010E94785E07C0112391F311
:1058700060E088E493E00E945B5E83E090E09093B8
:10588000D90A8093D80A81E08093AD0A0E946D976F
:105890000E94993CC114D104E104F104E1F080912B
:1058A000301490913114A0913214B0913314C80E79
:1058B000D91EEA1EFB1E0E94C2DEDC01CB018C1940
:1058C0009D09AE09BF09B7FF1AC08091AD0A8111C9
:1058D0000C94823514C08091AD0A882321F080E0B9
:1058E0000E9482D8F8CF8091120860E0882319F0D6
:1058F00089E393E002C084E393E00E945B5E109230
:10590000AD0A0C94AE1F84918F010F5F1F4F882347
:1059100021F00E94763DF801F6CF1092980A10927D
:10592000970A83E498E00E946DB28BE1E3E4F8E02B
:10593000DE01159601900D928A95E1F7809141085C
:10594000909142089C838B8388EB92E09A838983B1
:1059500040E050E0BE016F5F7F4F87E793E00E9419
:1059600090B9CE0101960E943F66E2E6F3E0849191
:105970008F010F5F1F4F882311F40C94AE1F0E94FC
:10598000763DF801F4CF0E9426570C94AE1F10927A
:105990001208109213080C94AE1F803209F4108282
:1059A000319680818111F9CF40E061E08091F4036C
:1059B0009091F5030E94ABBB0C94AE1F19821A8222
:1059C0001B821C8218A219A21AA21BA28091EA0AA9
:1059D000882341F040E0BE016F5F7F4FCE0180968B
:1059E0000E94546380911308882319F081E080930A
:1059F00012080E94A2B80C94AE1F8091130888234D
:105A000011F40C94AE1F83E50E94123C882311F41C
:105A10000C94AE1F0E94803BAB01BC0140938E0AE8
:105A200050938F0A6093900A7093910A8DED99E0DC
:105A30000E9498EF0C94AE1F80911308811103C04F
:105A4000E9E9F3E02AC0E7E8F3E084918F010F5F12
:105A50001F4F882321F00E94763DF801F6CF609118
:105A60008E0A70918F0A8091900A9091910A4AE073
:105A70000E947D3D8FE20E94763D60918A0A70917E
:105A80008B0A80918C0A90918D0A4AE00E947D3D9C
:105A90008AE00E94763D0C94AE1F84918F010F5FC7
:105AA0001F4F882311F40C94AE1F0E94763DF8011D
:105AB000F4CF40E060E08091F4039091F5030E9400
:105AC000ABBB0C94AE1F8091120881110E946D97A0
:105AD000E090F403F090F50380E50E94E33B182F7B
